:100000000C9473010C94041B0C9490010C949001BB
:100010000C9490010C9490010C9490010C9490011C
:100020000C9490010C9490010C9418220C94EC22E6
:100030000C940C1D0C9490010C9490010C94900164
:100040000C9490010C9490010C9490010C949001EC
:100050000C9490010C94AE1D0C9490010C949001A2
:100060000C9490010C9490010C9490010C949001CC
:100070000C9490010C9490010C9490010C949001BC
:100080000C9490010C9490010C9490010C949001AC
:100090000C9490010C9490010C9490010C9490019C
:1000A0000C9490010C9490010C94900129001E0076
:1000B0001F002000210022002B0014001A0008005D
:1000C00015001700390004001600070009000A0097
:1000D000E1001D001B0006001900050000002B18A0
:1000E0008B6850644C612C412300240025002600BD
:1000F00027002D001C0018000C00120013002F0018
:100100000B000D000E000F00330034001100100032
:10011000360037003800876228412A614F648A68B8
:10012000160A000001003A003B003C003D003E0082
:10013000010001002400250026000100010001004B
:100140002100220023000100010001001E001F0009
:10015000200001000000270037000100010001001D
:100160003F004000410042002E00890001000100D4
:1001700052000100010030000100500051004F000A
:100180000100320001000100010001000100010036
:100190000100010001000100010000002C034400E7
:1001A00061006300740079006C002D004D00610057
:1001B0006E00750066006F0072006D002000280060
:1001C000350078003600290000000E03740073002B
:1001D00068006F0072007400000004030904090243
:1001E0003B00020100A0FA09040000010301010024
:1001F00009211101000122400007058103080001C7
:10020000090401000103000000092111010001227D
:100210007B0007058203200001120100020000009C
:10022000084D44363501000102000105010902A113
:100230000185020901A100050919012908150025F8
:1002400001950875018102050109300931158125E3
:100250007F95027508810609381581257F950175FE
:10026000088106050C0A38021581257F950175085D
:100270008106C0C005010980A101850319012AB7C3
:1002800000150126B700950175108100C0050C0905
:1002900001A101850419012AA002150126A00295D9
:1002A0000175108100C005010906A101050719E0CB
:1002B00029E715002501950875018102950175084A
:1002C00081010507190029FF150026FF0095067515
:1002D0000881000508190129059505750191029508
:1002E0000175039101C011241FBECFEFDAE0DEBF1C
:1002F000CDBF11E0A0E0B1E0ECE9FAE402C0059066
:100300000D92A03AB107D9F722E0A0EAB1E001C00E
:100310001D92A03BB207E1F70E943F140C943625D2
:100320000C94000081E0089581E008950C949401FC
:1003300008950C9498011F93CF93DF9300D000D0C1
:100340000F92CDB7DEB749835A836B833091A301F7
:1003500089819A8131111DC06623B9F02223A9F049
:100360000E94F807182F682F89819A810E94A1079F
:1003700069817A81812F0F900F900F900F900F90CD
:10038000DF91CF911F910C94EF0E0E94CF07182F91
:10039000EFCF0E94F80769817A81EDCFFC01262F0B
:1003A000408151816281738184810C949B0181E041
:1003B0000895CF93DF93EC0160E00E94CE01BE016F
:1003C000DF91CF910C9499010C944A100C944D102C
:1003D00008950E944E060E94E8012FEF84E39CE0FE
:1003E000215080409040E1F700C000000C94D21DE5
:1003F0000F931F93CF93DF938C0161E00E94CE0196
:10040000EC01B8010E9496018823A9F1B801CE0140
:100410000E940C1A882379F1B801CE010E94E316DC
:10042000882349F1B801CE010E947619882319F179
:10043000F8018281882361F0CB35FDE5DF0721F1EA
:1004400070F4C115ECE5DE07A1F0CF3DDC45C9F045
:10045000C801DF91CF911F910F910C949201CC357F
:100460008DE5D807A1F0CD35DD4591F70E94670CE9
:10047000EFCF0E94E90180E0DF91CF911F910F91B2
:1004800008950E941B0DF7CF0E94700CE1CF0E94CF
:10049000730CDECF0E94F11C0C9462020E94650274
:1004A0000C94F51C08950C94520281E008950C946C
:1004B00055020895CF93C82F0E9453028C2FCF91DD
:1004C0000C94570280E00C945A020E942A1C0C944F
:1004D0005A020E942A1C9091A201981721F0809341
:1004E000A2010C945A020895CF93DF93CDB7DEB7E3
:1004F0002B970FB6F894DEBF0FBECDBF4F83588742
:1005000069877A878B8761110E94B50B1E821D82D5
:1005100085E0FE013796DE01119601900D928A95D5
:10052000E1F78C819D81892B89F449815A816B8106
:100530007C818D819E810E94D60A2B960FB6F894FD
:10054000DEBF0FBECDBFDF91CF91089589819A8123
:1005500089238F3F51F3CE0101960E94D70181116B
:10056000E4CFEBCFFC01808191810C943A08CF93CA
:10057000C82F882309F490C08238C1F40E942A1C35
:1005800081FD8AC089E30E94700B0E94D50B2FEF7A
:1005900081EE94E0215080409040E1F700C00000DF
:1005A00089E30E94770BCF910C94D50B8338A1F48B
:1005B0000E942A1C80FD70C083E50E94700B0E947F
:1005C000D50B2FEF81EE94E0215080409040E1F771
:1005D00000C0000083E5E5CF8438A1F40E942A1C06
:1005E00082FD5AC087E40E94700B0E94D50B2FEF4A
:1005F00081EE94E0215080409040E1F700C000007F
:1006000087E4CFCF8CEF8C0F813AB8F48C2F0E9407
:10061000BA18811141C06C2F8091020190910301A1
:100620000E94941C882329F08C2F0E94770B0E9433
:10063000D50B8C2F0E94700BB6CF80E28C0F8830C8
:1006400048F4C77081E001C0880FCA95EAF70E949C
:10065000980BA9CFEBE5EC0FE33040F4F0E0E25A61
:10066000FE4F808190E0CF910C94561CE8E5EC0F92
:10067000E73150F4F0E0EE0FFF1FE05DFE4F8081A8
:100680009181CF910C946C1CCD3E30F08C2F0E9448
:10069000C314CF910C949615CF910895882309F433
:1006A00052C0823871F40E942A1C81FF4CC089E339
:1006B0000E94700B0E94D50B89E30E94770B0C946B
:1006C000D50B833859F40E942A1C80FF3CC083E577
:1006D0000E94700B0E94D50B83E5EFCF843859F44C
:1006E0000E942A1C82FF2FC087E40E94700B0E9488
:1006F000D50B87E4E2CF9CEF980F913AF0F290E2AD
:10070000980F983050F4877091E001C0990F8A9546
:10071000EAF7892F0E949E0BD2CF9BE5980F93306A
:1007200020F490E080E00C94561C98E5980F9731E7
:1007300020F490E080E00C946C1C8D3E20F00E9430
:100740001D150C94961508951F93CF93DF93182FC2
:10075000EB010E94B702209731F4812FDF91CF91F6
:100760001F910C944E038FE99FE00197F1F700C0B1
:1007700000002197F0CF70E060E0893311F460E56C
:1007800070E00C94A403882321F00E94980B0C9431
:10079000D50B0895882321F00E949E0B0C94D50B55
:1007A0000895BF92CF92DF92EF92FF920F931F9323
:1007B000CF93DF936C01D62FC72FFC011281F580F8
:1007C000F2949FE0F9220E948E0BE82E8823B9F064
:1007D000E12E1123A1F08C2F807F803421F080E264
:1007E0008D0F8830D0F08091880282FD16C082E0A3
:1007F0000E94360C0E948E0B91E0E82EE926BC2E5A
:10080000B2948FE0B822FBE0FB1508F468C0EB2D32
:10081000F0E0E85CFA4D0C94C424E12CF0CF0C2FEE
:100820000F70C07F11F00295007F112399F0002313
:1008300059F080E28D0F883010F0D11107C0802F61
:100840000E94980B0E94D50B8D2F41C0802F0E94D3
:10085000A80BF8CF8D2F0E944E03002309F43FC050
:1008600080E28D0F883010F0D11104C0802F0E94DB
:100870009E0B03C0802F0E94AE0B0E94D50B2FC091
:100880000C2F0F70C07FC03211F00295007FDD2366
:1008900081F0D13009F469C0112309F473C0FF203D
:1008A00009F469C0F601858180FFCECF8F70858302
:1008B00062C08091880282FF38C0112359F0002362
:1008C00029F0802F0E94980B0E94D50B80E00E9497
:1008D000B70205C080E00E944E030111C7CFEB2D87
:1008E000E850FF0B349720F40E942A1C0E945A0201
:1008F000EE2009F472C10E948A0B80FD6EC1F601E0
:1009000012820E94840B0E940507C6010E940E06F7
:100910000E94840BDF91CF911F910F91FF90EF9078
:10092000DF90CF90BF900C942607112389F0F1102F
:1009300006C00E94B80B802B0E94C303D0CF21E0D9
:10094000F212F7CF0E94B80B802B0E94BE0BC7CFCC
:10095000F11006C00E94CB0B802F0E94CA03BFCFAC
:1009600031E0F31609F4BBCFF5CF112331F085E068
:100970008F1508F4B4CF802FDFCF94E09F1508F4D3
:10098000AECFEACFFF2041F3D93349F4FFEF27EE92
:1009900033E0F15020403040E1F700C000008D2FDF
:1009A0000E944E039CCF8C2F86958695837069F0AC
:1009B000813009F094CF8D2F9C2F9370111102C0BC
:1009C00090E080E00E946C1C8ACF8D2F9C2F93704A
:1009D000111102C090E080E00E94561C80CF8D2F44
:1009E000112329F00E94C3140E94961578CF0E940B
:1009F0001D15FACF8C2F837009F041C011116FCFF4
:100A00004D2F429546954770440F440F0D2F0F70A0
:100A100010E030E020E0042E04C0000F111F221F60
:100A2000331F0A94D2F760E070E0CB01D4FF0FC00F
:100A30006FE070E080E090E004C0660F771F881FD1
:100A4000991F4A95D2F76095709580959095C695B7
:100A5000C695C370602B712B822B932BC23049F04B
:100A600058F4C13019F00E94B70639CF0E94A5068C
:100A700036CF0E94C90633CF0E94A30630CF869599
:100A8000112311F08C2F8170882309F428CF4D2F6A
:100A9000429546954770440F440F0D2F0F7010E09C
:100AA00030E020E0042E04C0000F111F221F331F6E
:100AB0000A94D2F760E070E0CB01D4FF0FC06FE082
:100AC00070E080E090E004C0660F771F881F991FD8
:100AD0004A95D2F76095709580959095C695C69584
:100AE000C370602B712B822B932BC23049F058F4CA
:100AF000C13019F00E947C07F2CE0E946A07EFCE47
:100B00000E948E07ECCE0E94DF06E9CECF70112343
:100B100029F08C2F0E9405078D2F0ECF8D2F0E945C
:100B2000CA038C2F0E942607DACED23F51F160F41F
:100B3000D03FB9F0D13F81F0112309F449C0F11041
:100B400083CE8C2F8F7121C0D33F11F1D43FA1F7F9
:100B50008091880282FF26C08C2F8F71112311F3A0
:100B600014C0112349F084E08F1508F4B8CE8C2FFF
:100B70008F710E944907B3CE95E09F1508F4AFCE60
:100B8000F6CF8C2F8F711111CDCF0E940507A7CE04
:100B9000112329F08C2F8F710E94F006A0CE0E94A5
:100BA000EB069DCE112349F0CF718C2F0E940507D3
:100BB00063E08C2F0E941B0C92CE81E00E94360CC9
:100BC000E1E0EF1508F08BCE82E00E94360C87CE74
:100BD000F110DACE8C2F8F71A5CFDF91CF911F91BD
:100BE0000F91FF90EF90DF90CF90BF9008950F93FB
:100BF0001F93CF93DF93EC01688179818A810E94F2
:100C000044088C010E94A0070E94A206B801CE01F0
:100C1000DF91CF911F910F910C94D103CF93DF936C
:100C2000EC018B819C81892B29F088819981892312
:100C30008F3F59F4DF91CF910895CE010E94F705BF
:100C4000CE01DF91CF910C94D901CE010E94F80121
:100C50008111F3CF0E948E0B882361F38A81882350
:100C600049F38091880282FDE5CF82E0DF91CF9148
:100C70000C94360C90E080E00E94561C90E080E0DE
:100C80000E946C1C0E94B50B0E94D50B0E94BD16E1
:100C90000C9496150E947E0B0C943A060E94A50BAC
:100CA0000C944A0692959F70963091F058F4925F9A
:100CB0009F70923058F4803F19F030F4883E30F441
:100CC00081E008959A5FF4CF843FD1F380E00895E6
:100CD000883EB0F3813FD1F7F3CFFC018081918151
:100CE0000E943A080C945206CF93DF9300D000D0B4
:100CF0000F92CDB7DEB70F900F900F900F900F901F
:100D0000DF91CF910895CF93DF9300D000D000D032
:100D1000CDB7DEB726960FB6F894DEBF0FBECDBFB7
:100D2000DF91CF91089508950C9493060E94940644
:100D30006093D0017093D1018093D2019093D3013D
:100D40000C943A0608950C9496060F931F93009105
:100D5000D0011091D1012091D2013091D301602BAB
:100D6000712B822B932B1F910F910C9496060F934E
:100D70001F930091D0011091D1012091D2013091A7
:100D8000D30160237123822393231F910F910C942D
:100D900096060F931F930091D0011091D1012091DD
:100DA000D2013091D30160277127822793271F91A9
:100DB0000F910C9496060C9493060C94DB060E94FB
:100DC000DD066093CC017093CD018093CE019093AA
:100DD000CF010C943A0660E070E0CB010C94DF0682
:100DE0000F931F9341E050E060E070E08A019B01A7
:100DF00004C0000F111F221F331F8A95D2F7C901AB
:100E0000B8011F910F910C94DF060F931F9341E0DF
:100E100050E060E070E004C0440F551F661F771F6C
:100E20008A95D2F78091CC019091CD01A091CE010D
:100E3000B091CF018A019B01082B192B2A2B3B2B48
:100E4000C901B8011F910F910C94DF060F931F93F6
:100E500041E050E060E070E004C0440F551F661FA1
:100E6000771F8A95D2F7CB01BA016095709580956E
:100E700090950091CC011091CD012091CE0130913F
:100E8000CF0160237123822393231F910F910C9430
:100E9000DF060F931F9341E050E060E070E004C074
:100EA000440F551F661F771F8A95D2F78091CC019A
:100EB0009091CD01A091CE01B091CF018A019B010B
:100EC000082719272A273B27C901B8011F910F912D
:100ED0000C94DF060F931F930091CC011091CD016C
:100EE0002091CE013091CF01602B712B822B932B5F
:100EF0001F910F910C94DF060F931F930091CC016B
:100F00001091CD012091CE013091CF01602371234A
:100F1000822393231F910F910C94DF060F931F934D
:100F20000091CC011091CD012091CE013091CF01E3
:100F300060277127822793271F910F910C94DF065A
:100F40000895E92FEE0FE90FEE0F8E0F982F97708F
:100F500041E001C0440F9A95EAF7869586958695FB
:100F600095E0899FF0011124EC55FE4F30E020E020
:100F700070E05191DF011197CB01022E02C09695CE
:100F800087950A94E2F781708195852784238527C8
:100F90008C932F5F3F4F2530310559F70895E92F86
:100FA000EE0FE90FEE0F8E0F982F977086958695AE
:100FB000869525E0829FF0011124EC55FE4F50E00C
:100FC00040E080E0219130E0092E02C0369527955F
:100FD0000A94E2F721703327042E01C0220F0A94ED
:100FE000EAF7822B4F5F5F4F4530510559F708955F
:100FF000BF92CF92DF92EF92FF920F931F93CF9306
:10100000DF938C01C090CC01D090CD01E090CE0157
:10101000F090CF018091D0019091D101A091D201A7
:10102000B091D301C82AD92AEA2AFB2ACFE1D0E01D
:10103000BC2ED701C6010C2E04C0B695A795979576
:1010400087950A94D2F780FD0EC0219788F7B12CBE
:101050008B2DDF91CF911F910F91FF90EF90DF903B
:10106000CF90BF900895B8018C2F0E94030F019775
:1010700061F3EECFCF93DF93EC010E94F807BE013E
:10108000DF91CF910C94030F1F93CF93DF93EB016C
:101090009091A301992331F0CB01DF91CF911F9162
:1010A0000C943A08882379F0CB010E94F807182F96
:1010B000682FCE010E94A107BE01812FDF91CF9141
:1010C0001F910C94030FCB010E94CF07182FF4CF70
:1010D0001F93CF93DF93C091D40116E08091D50187
:1010E0008C1304C0DF91CF911F910895D0E01C9F15
:1010F000F0011D9FF00D1124EA52FE4F40815181F5
:1011000062817381848195810E9483062196C770D4
:10111000E5CF40910602509107026091080270915C
:10112000090280910A0290910B020C94830620918F
:10113000D4019091D50156E0291302C080E00895B2
:1011400030E0529FF001539FF00D1124EA52FE4F00
:101150007181761306C07081781303C07281741395
:1011600004C02F5F3F4F2770E7CF81E00895FF92C3
:101170000F931F93CF93DF9380910B02807FD1F465
:10118000809108028823B1F08091D4011091D5019B
:101190006091060270910702A0910902B0910A02C3
:1011A000062F0723C0910001D091010196E0F92E8E
:1011B000181306C0DF91CF911F910F91FF900895F2
:1011C00090E0109711F00F3F19F401968770F0CF5F
:1011D000F89E9001F99E300D1124F901EA52FE4F5C
:1011E00041814713F2CF40814613EFCF4281411135
:1011F000ECCF438154814A1B5B0B4C175D0728F7EA
:1012000080910B028F70806180930B02F901E5528F
:10121000FE4F80818F708061808386E092E00E9423
:101220000E06DF91CF911F910F91FF900C946808EB
:101230008F929F92AF92BF92CF92DF92EF92FF92E6
:101240000F931F93CF93DF93CDB7DEB761970FB6A0
:10125000F894DEBF0FBECDBF8C0185E0F801DE0142
:101260001D9601900D928A95E1F7D8011296EC90A7
:10127000129786E0A82E82E0B82E40910902509184
:101280000A024115510509F472C19091060220919C
:101290000702892F82238F3F09F469C1CC901196F0
:1012A000DC90119713968D909C901497F090080203
:1012B000B401641B750B4091000150910101FF20A6
:1012C00009F403C180910B02382F307F6417750732
:1012D00008F0BDC0311188C0FE2CD21225C09C116F
:1012E00023C0E11021C08F70806180930B020E94A7
:1012F0008908C5010E940E0680910B02F8018583C2
:101300008F2D61960FB6F894DEBF0FBECDBFDF9173
:10131000CF911F910F91FF90EF90DF90CF90BF90F2
:10132000AF909F908F9008958114910429F08D2D96
:101330008C218F3F09F037C180E080FF15C04E2D12
:101340006D2D8C2D0E949708882371F086E092E025
:101350000E940E0686E0E6E0F2E0DF011D928A952B
:10136000E9F70E9489083EC0892829F08D2D8C213B
:101370008F3F09F015C180E0B82FB170AB2E80FF10
:1013800029C04E2D6D2D8C2D0E949708B82E8111ED
:1013900021C0CD86DE868D859E850E943A08292F44
:1013A00022952F70223050F0243078F49F7051F045
:1013B000F8019581907F31F4FB2CA2CF9F7011F042
:1013C0008823D1F3805E8830B8F3C8010E940E06EE
:1013D000BA2CF2CFEE2009F493CF80910B028160FA
:1013E00080930B02F12C8CCFD21205C09C1103C04C
:1013F000EE2009F487C0C8010E946D06882319F108
:10140000EE2009F180910B02803270F020910602EB
:101410003091070238872F8319869B868A868C87AE
:10142000CE0107960E940E0686E0F801A6E0B2E023
:1014300001900D928A95E1F70E94B7080E948908F1
:10144000FF24F3945DCFC8010E940E06F9CF31113D
:1014500012C0782D998A888AA6016E2D89890E94EA
:10146000740686E092E00E940E0686E0F501119275
:101470008A95E9F776CFD2120FC09C110DC0E1100A
:101480000BC015968C93C8010E940E0686E0F501EC
:1014900011928A95E9F734CFC8010E946D0688231E
:1014A00091F2EE2081F280910B02803208F4BCCFE1
:1014B00020910602309107023A8329831B829D8284
:1014C0008C828E83CE010196ADCF6417750708F02C
:1014D00040C0FE2CEE2009F4B6CFD2122CC09C11D5
:1014E0002AC080910B0280FD1DC0982F907FD1F003
:1014F00015968C931597903F39F0982F907F905FB9
:101500008F70892B15968C93C8010E940E0686E079
:10151000F801A6E0B2E001900D928A95E1F70E94F1
:101520008908EECE86E0F801A6E0B2E001900D92C7
:101530008A95E1F7E5CEC8010E946D06811174CF4E
:1015400080910B02816080930B02C8010E940E06FD
:10155000D7CE782D998A888AA6016E2D89890E9416
:10156000740686E0F50111928A95E9F7D8CFEE204E
:1015700009F469CFC8010E946D06F82E882309F48A
:1015800062CF86E0F801A6E0B2E001900D928A9564
:10159000E1F786E092E00E94B2020E94B708BFCF56
:1015A00081E08E25E9CE81E08E25C7CE1F93CF93B3
:1015B000DF93CDB7DEB72C970FB6F894DEBF0FBE22
:1015C000CDBF4F83588769877A878B879C87CE01E9
:1015D00007960E941809882369F08A859B85892BC4
:1015E00039F04F815885842F85238F3F09F071C0D2
:1015F00016E05FC086E0FE013796DE01119601908D
:101600000D928A95E1F78A859B85892B89F38F81D5
:10161000988589238F3F61F32091D50130E0C9017E
:101620000196877099274091D4014817190671F4E3
:101630000E944E061092D5011092D40186E0E6E099
:10164000F2E0DF011D928A95E9F7D2CF96E0929FF2
:10165000D001939FB00D1124AA52BE4FFE013196C6
:1016600001900D929A95E1F78093D5010E94680848
:10167000BFCF819FC00111248A529E4F0E9418093A
:101680008823E9F0E091D4011E9FF0011124EA5271
:10169000FE4F4081518162817381848195810E94D6
:1016A00083068091D40190E00196877099278093FA
:1016B000D4018091D4019091D5018913DACF2C9671
:1016C0000FB6F894DEBF0FBECDBFDF91CF911F9153
:1016D000089569857A858B859C850E94830688CFCD
:1016E000682F80910201909103010C94CA1C682F0D
:1016F00080910201909103010C94CC1C8091020115
:10170000909103010C94CE1C8091140285958595CF
:101710008595089580911402877008959091140220
:10172000977081E009F480E0089580911F02089588
:1017300090911F02892B80931F02089580959091AC
:101740001F02982390931F02089510921F0208957C
:1017500090911E02892B80931E020895809590918E
:101760001E02982390931E02089510921E0208955F
:1017700080911502089508950C94BB0B90918802F6
:1017800092FD08C090911502981721F080931502E0
:101790000C94BC0B089580911502882329F01092B7
:1017A000150280E00C94BC0B0895CF93DF93E09179
:1017B0000201F091030180911F028083E0910201F8
:1017C000F0910301808190911E02892B808390917A
:1017D0001502992381F0E0910201F09103018081CB
:1017E000892B808380910201909103010E94821CC9
:1017F00081110E94CB0BC0910201D091030148E0FE
:1018000050E06CE072E0CE010E94DE24892B69F08A
:1018100088E0FE01ACE0B2E001900D928A95E1F71C
:10182000CE01DF91CF910C943D1CDF91CF910895B3
:1018300008950C94180C9091880292FD10C098E0C5
:10184000899F90011124622B609314020E94050766
:10185000809114028595859585950C94190C0C94AE
:1018600005071092140280E00C94190C9091140258
:101870008095892380931402282F277091F4282FB4
:10188000082E000C330B9217130659F09091880222
:1018900092FD07C08595859585950E9426070C9435
:1018A000310C08959091880292FB222720F9281785
:1018B00069F080FB92F99093880280918702909161
:1018C00088020E94970C82E00C94360C0895809157
:1018D000880282FB882780F991E089270C94520CBA
:1018E00081E00C94520C80E00C94520C90E080E06B
:1018F0000E94FC2421E0893E9E4F09F020E0822FC7
:10190000089582E090E00C94F42483E090E00C943D
:10191000F424CF9384E090E00E94F424C82F82E264
:1019200090E00E94F424982F8C2FCF910895CF93AC
:10193000C92F682F84E090E00E9402256C2F82E27C
:1019400090E0CF910C940225AB01BC018FE090E0B8
:101950000C941425AB01BC0183E190E00C94142598
:1019600060E070E0CB010C94AA0C60E070E0CB0169
:101970000E94A40C0C94B00C69EE7EEF90E080E025
:101980000E94202560E082E090E00E94022560E055
:1019900083E090E00E9402251092D0011092D101C4
:1019A0001092D2011092D30160E084E090E00E9496
:1019B000022560E082E290E00E94022560E085E07E
:1019C00090E00E94022560E086E090E00E940225FF
:1019D0006FEF87E090E00E94022540E050E0BA01FE
:1019E00088E090E00E94142560E08DE090E00E9485
:1019F000022540E050E0BA0188E190E00E94142501
:101A000060E087E190E00E94022540E050E0BA01EA
:101A10008CE190E00E94142570E060E080E290E0AC
:101A20000E94202540E050E0BA0188E190E00E9449
:101A300014250C94B50C0C94BC0C682F8EE090E02F
:101A40000C9402250E94771D60932E0270932F0242
:101A5000809330029093310260932A0270932B029C
:101A600080932C0290932D02089585B7806885BFDE
:101A700085B7806885BF0895089508950C943D0D3D
:101A800008950C94400D0E94350D82E290E10E9471
:101A9000201C0E943C0D0C943E0D0C940C120895D9
:101AA00008950E944F0D0C94500D0E9425100C9427
:101AB00059020E94621D0E94E10F0E9426120E949C
:101AC00060110E94550D0E94CB160E9430120C949A
:101AD000410D9F92AF92BF92CF92DF92EF92FF9211
:101AE0000F931F93CF93DF93CDB7DEB72A970FB62F
:101AF000F894DEBF0FBECDBF0E948211C82E8111A7
:101B00000E94220D80E2A82E82E0B82E10E000E0B4
:101B1000902E802F0E944F10E82EF501F1905F016A
:101B2000F81609F445C08091320281FD0E945510DB
:101B30008F2D8E25D12CFF24F394982F9F2199F17E
:101B40000E944D0D882399F0DE829F82EF2081E074
:101B500009F480E088870E946B1D8160782F9A8746
:101B600089874E815F8168858A850E947402F801A9
:101B7000E05EFD4F8081F826F08281E0C11001C057
:101B800080E02A960FB6F894DEBF0FBECDBFDF917E
:101B9000CF911F910F91FF90EF90DF90CF90BF906A
:101BA000AF909F900895D394FF0CF6E0DF12C5CF5D
:101BB0000F5F1F4F0A30110509F0AACF8FEF8983FD
:101BC0008A831B820E946B1D8160782F9D838C838A
:101BD00049815A816B818D810E947402CECF0E940F
:101BE000690D0E940C120E94B1150C946902CF93EA
:101BF000DF930E94070FEC01811521E5920708F0A1
:101C000042C0811530E5930708F09DC0883E9105DC
:101C100030F5803E910508F092C0883A910588F42D
:101C2000853A910508F084C08130910509F487C098
:101C3000009709F484C0049708F081C0D0E0C0E0A8
:101C40007EC08F3B9105D0F7C85AD0E0CC0FDD1F86
:101C5000CF59DE4F0990D881C02DD46470C0811552
:101C6000904250F4C11581E0D80708F068C0CD3E1D
:101C7000D10520F3D06563C0C11590E4D907F0F217
:101C8000DF70D06A5CC0811525E5920700F58115EB
:101C900034E5930708F08BC0811543E5940708F0FD
:101CA00073C0C11582E5D80708F469C0CE018370FE
:101CB000992721E030E002C0220F331F8A95E2F716
:101CC000C695C69580E2C89FE001112454C0C11595
:101CD00099E5D907A8F4C11528E5D20708F06CC02A
:101CE000C11536E5D30708F0A9CF8C2F0E949E0FAF
:101CF000C82FD0E0DC2FCC27CC27DF71D0621FC0EB
:101D0000C1154AE5D40708F45CC0CE019056811590
:101D1000904208F093CF8D2F8F710E949E0F90E01C
:101D2000982F882788279F719C012C2BE901E6CFEB
:101D3000C55AD0E0C157DE4FC881D0E0D064CE0193
:101D4000DF91CF910895E4E096958795EA95E1F7C4
:101D500083702C2F26952695237040E2249F9001B6
:101D60001124382B8C2F8370C1E0D0E002C0CC0F3F
:101D7000DD1F8A95E2F7C22BD32BDC68E0CFDC2F86
:101D8000CC27C16FD06ADBCF8370992721E030E088
:101D900002C0220F331F8A95E2F7C695C69590E2DE
:101DA000C99FE0011124C22BD32BDA68C8CFD82FEA
:101DB000CC27C46FD06AC3CFDC2FCC27C06FD06ACA
:101DC000BECF8C2F8F700E949E0F34E0D695C795A2
:101DD0003A95E1F7CF709C2FEC01D069B0CF972FE7
:101DE00070E026E0929F600D711D1124FB019CE3C1
:101DF000899FE00DF11D1124EE0FFF1FE455FF4FE9
:101E00008591949108950E94EF0E0C94F70D8238FD
:101E10009105B1F1B0F48133910509F475C048F42E
:101E20008932910509F469C08A32910509F473C0B9
:101E300008958533910509F459C08933910501F15D
:101E40000895833E9105A9F138F4803E9105F9F09B
:101E5000823E910549F10895863E9105A9F1873E9C
:101E60009105C9F1843E910519F52091880221FF61
:101E70001FC08091870284FD14C087EE90E0089512
:101E8000209187022370A1F080EE90E008952091C8
:101E9000870220FD47C03091880230FF09C024FF2F
:101EA00044C090E080E004C02091870222FDF7CF7B
:101EB00008952091870222FD3BC03091880230FDB9
:101EC000E3CF24FFF5CFEDCF2091870223FFF0CFA2
:101ED00024FDE7CFD2CF2091870223FD2CC0309183
:101EE000880231FFEECF84EE90E0089520918702C2
:101EF00025FFDECF89E290E008952091870225FF3B
:101F0000D7CF85E390E008952091870226FFD0CFB8
:101F10008AE290E008952091870226FFC9CF81E3ED
:101F200090E0089589E390E0089583EE90E00895AD
:101F300082EE90E0089586EE90E0089590918702F9
:101F400092FF06C0282F28712830F9F4877F84601B
:101F500093FF06C0282F28712831F1F4877E846111
:101F60002091880220FF06C0382F38713830D9F40C
:101F7000877F816021FF06C0282F28712831D1F486
:101F8000877E816194FD877E0895282F24712430F7
:101F9000F9F68B7F8860DCCF282F2471243101F77C
:101FA0008B7E8861DDCF382F3171313019F78E7F0C
:101FB0008860E0CF282F2171213121F78E7E886142
:101FC000E1CF109283021092840210928502109247
:101FD00086020895CF92DF92EF92FF926B017C010F
:101FE0000E940C1281110EC00E94771DC61AD70ADA
:101FF000E80AF90AC0928302D0928402E092850234
:10200000F0928602FF90EF90DF90CF9008950F93AB
:102010001F930E940C12882321F01F910F910C94A2
:10202000771D0E94771D00918302109184022091F8
:10203000850230918602600F711F821F931F1F91CE
:102040000F91089580E0089508950E94760C811103
:1020500002C00E941B0D0E94810C809332020E94DC
:10206000890C90938802809387020E9424100E941A
:10207000850C682F70E090E080E00E94A3066091DC
:10208000CC017091CD018091CE019091CF010C9443
:10209000DD0608950C94491008950C944C10E82F17
:1020A000F0E0EC56FD4F80810895089580EA8A950E
:1020B000F1F7089500C008950C94561008950C94FB
:1020C0005E10EF92FF920F931F93CF93DF9300D098
:1020D00000D00F92CDB7DEB70E940C12F82E60919F
:1020E0009E02882309F448C085E0E82E8E010F5F28
:1020F0001F4FF8018E2D11928A95E9F7862F90E0F7
:10210000B8018C569D4F0E943E128823F9F08091B1
:10211000890290E045E050E0B8018C569D4F0E9446
:10212000DE2421E020933302892BD1F4F12C0E948C
:10213000E6018F2D0F900F900F900F900F90DF9171
:10214000CF911F910F91FF90EF90089580913302EE
:10215000882361F3F8011192EA94E9F710923302AF
:10216000A0918902B0E0AC56BD4F85E0F801019026
:102170000D928A95E1F7DBCF70E06C567D4F809130
:10218000890290E08C569D4F0E94C6120E945F10FB
:10219000D0CFF894E82FE295EF70F0E031A1282F2E
:1021A0002F7081E090E001C0880F2A95EAF7982F00
:1021B0009095932391A392A1892B82A3789408955B
:1021C000CF93DF93C8E9D1E089918F3F11F00E944E
:1021D000C91081E0CD39D807B9F7C2E9D1E08991BA
:1021E0008F3F11F00E94C91081E0C839D807B9F7B4
:1021F000DF91CF910895CF92DF92EF92FF920F93EC
:102200001F93CF93DF93EC01D62E062F10E0C80169
:1022100088569E4F7C01FC0180818F3F09F445C0A8
:10222000F894E82FE295EF70F0E091A18F7021E033
:1022300030E001C0220F8A95EAF7892F822B81A313
:1022400082A12095282322A378940E945A10E2E9C3
:10225000F1E048E951E031E0C12C21912F3F71F1CB
:10226000A22FA295AF70B0E090968C9190E02F7065
:1022700002C0959587952A95E2F780FD1FC0832FB0
:10228000C82A330F4E175F0741F7F70180818F3F50
:1022900011F00E94C91061E0C11001C060E08D2DF5
:1022A0000E945C10C00FD11FC882DF91CF911F9197
:1022B0000F91FF90EF90DF90CF90089580E0E0CFF6
:1022C000809104018091040195E0811190E0909348
:1022D0009E0285E0891B809389020E94E0108AE0BB
:1022E000E4E9F2E0DF01982F1D929A95E9F7EAE818
:1022F000F2E0DF011D928A95E9F785E00E94D51191
:102300000C94E401EF92FF920F931F93CF93DF930E
:10231000CDB7DEB72A970FB6F894DEBF0FBECDBF9C
:102320008E010F5F1F4F8AE0F80111928A95E9F73D
:10233000F12C6F2DC8010E94FB10F394F5E0FF1201
:10234000F8CF4AE050E0B8018AE892E00E94DE242B
:102350007C0121E0892B09F420E0E114F10441F033
:102360008AE0F801AAE8B2E001900D928A95E1F7BF
:1023700060919E0270E06C567D4F45E08AE892E0E5
:102380000E94D61181E090E0EF2811F40E946110C4
:102390002A960FB6F894DEBF0FBECDBFDF91CF9166
:1023A0001F910F91FF90EF9008950895FF920F9362
:1023B0001F93CF93DF93F82E092F162FD72FC42FFB
:1023C000222349F081E0809336020E946B1D909396
:1023D000350280933402809136028823A1F08091E7
:1023E0003402909135020E94831D059760F0EF2D15
:1023F000F02FA12FBD2FCE0FDF2FD11DEC17FD0722
:1024000041F410923602DF91CF911F910F91FF900E
:10241000089581918D93F2CF80913902811107C087
:102420000E94A324882351F081E08093390281E047
:1024300090913902913009F080E0089582E0809314
:1024400039020E949E24F3CF0C940C120E94241295
:10245000809304010E940C1281110C94741208954F
:102460000E940C12811102C00C947612089581E032
:1024700090913A029A3008F080E008950F931F93EC
:10248000CF93DF93EC018B0180913A028A30B8F44C
:10249000B801CE010E94C412C82F811122C08091C0
:1024A0003A028F3FB9F40E946B1D909338028093DB
:1024B00037028C2FDF91CF911F910F91089580915A
:1024C0003702909138020E94831D843F914000F7AB
:1024D000C0E0EFCF8F5F80933A028A3020F7C1E0EF
:1024E000E8CF10923A02E5CF0C94BD1A0C94C01AB2
:1024F000DF92EF92FF920F931F93CF93DF937901B7
:10250000C82F880FDD0B41155105A9F0FE0193E09E
:10251000EE0FFF1F9A95E1F7EB5FFE4F81819281ED
:10252000855C9D4F208130E04217530708F49A01E3
:10253000A9010E94EB24CE010E94AA1BD82E882359
:10254000D1F001151105B9F083E0CC0FDD1F8A959C
:10255000E1F7FE01EB5FFE4F438150E004171507E2
:1025600008F4A801CB5FDE4F6C817D81655C7D4FF7
:10257000C7010E94EB248D2DDF91CF911F910F9108
:10258000FF90EF90DF9008950C94DD130C94F913F5
:102590000F931F93CF93DF9300D000D0CDB7DEB75A
:1025A00060915202709153028091540290915502B1
:1025B0000E94921D11E0643671058105910518F1A4
:1025C0000E9407106E5F7F4F8F4F9F4F69837A8302
:1025D0008B839C8310E000E030E020E044E050E09A
:1025E000BE016F5F7F4F82E00E947812182F882310
:1025F00051F00E94771D60935202709353028093B2
:10260000540290935502812F0F900F900F900F90CE
:10261000DF91CF911F910F910895AF92BF92CF920A
:10262000DF92EF92FF920F931F93CF93DF9300D02F
:1026300000D000D0CDB7DEB77B01C0909D01D09017
:102640009E0101E010E09E012A5F3F4F50E040E014
:1026500070E060E080E00E947812182F882309F46F
:1026600048C056018FEFA81AB80A60914E027091C7
:102670004F0280915002909151020E94921D643647
:1026800071058105910568F105E010E09E012F5F5D
:102690003F4F50E040E070E060E081E00E9478123F
:1026A000D82E65E070E0C5010E94CC1611E09E8135
:1026B000981310E01D2141F10E94771D60934E0296
:1026C00070934F02809350029093510285E0FE0177
:1026D0003196A9E4B2E001900D928A95E1F711E0FC
:1026E00013C065E070E0C5010E94CC169E8189137D
:1026F000CBCF85E0F6013196DE01119601900D9267
:102700008A95E1F71111E2CF85E0E9E4F2E0D70123
:1027100001900D928A95E1F7812F26960FB6F894D5
:10272000DEBF0FBECDBFDF91CF911F910F91FF9004
:10273000EF90DF90CF90BF90AF900895AF92BF928F
:10274000CF92DF92EF92FF920F931F93CF93DF937D
:102750007C015B016A010E94371201E010E08823CE
:1027600011F00AE010E0C1E0D0E0F894B501C70133
:10277000F60109957894811104C021960C171D0764
:102780005CF4DF91CF911F910F91FF90EF90DF905C
:10279000CF90BF90AF900895CC9F9001CD9F300D0A
:1027A000300D112490E080E045E34A95F1F70000F8
:1027B000019682179307C1F7D8CF0F931F93CF933A
:1027C000DF93EC018B014DE053E10E949E138823BF
:1027D00051F048EC52E1B801CE01DF91CF911F9149
:1027E0000F910C949E1380E0DF91CF911F910F9178
:1027F00008950F931F93CF93DF93F894C0919D0199
:10280000D0919E01CE01019625E0FB01DC010190F3
:102810000D922A95E1F765E070E00E94CC1688835E
:102820007894F8946E817F8188859985009145021E
:1028300010914602209147023091480260177107BB
:102840008207930751F0609345027093460280938C
:102850004702909348020E94EA0F7894DF91CF914B
:102860001F910F9108950E94721F0E94590D0C94A0
:102870007E1F0E94821F0E94EF0D0C949C1F0E94DD
:102880000B1D0E94591F0E94430D0E9433140E9489
:1028900039140E94510DFBCF80915E0280FF0DC064
:1028A0006091210170E0660F771F6038710570F547
:1028B0006115710569F1862F089581FF07C0609148
:1028C000210184E0689FB0011124EFCF60912101C4
:1028D00082FD0AC080915D028823A9F02091200129
:1028E00060912101821710F088E0ECCF869FC00133
:1028F000112433E0880F991F3A95E1F7622F70E0B9
:102900000E94B024D2CF68E070E0D5CF8FE7089561
:1029100081E0089580915E0280FF0CC060911E01ED
:1029200070E075956795759567956115710549F125
:10293000862F089581FF06C060911E0170E0759595
:102940006795F3CF60911E0182FD0BC090915C02F0
:102950009923A1F060911D0180911E01961738F016
:10296000682F70E06038710500F38FE70895899F44
:10297000C001112470E00E94B024F4CF61E070E047
:10298000D7CF81E008958D3E31F40E944C1481959B
:102990008093620208958E3E19F40E944C14F8CF81
:1029A0008F3E31F40E944C1481958093610208950A
:1029B000803F19F40E944C14F8CF893F29F40E94FB
:1029C0008A148093630208958A3F21F40E948A1436
:1029D0008195F7CF8B3F31F40E948A1481958093C3
:1029E000640208958C3F19F40E948A14F8CF9FE086
:1029F000980F983070F4815F990B21E030E001C0AE
:102A0000220F8A95EAF780916002822B8093600200
:102A100008958D3F31F480915E02816080935E0263
:102A200008958E3F21F480915E028260F7CF8F3F40
:102A3000B9F780915E028460F1CF409161028D3ED2
:102A400059F48091620287FF0DC010926202411119
:102A50000BC010925D0208C08E3E81F4809162022C
:102A600018169CF3442381F08091630290916402D4
:102A7000892B09F05AC010925C0208958F3E49F4E8
:102A800047FFF0CF10926102809162028111ECCF7A
:102A9000E0CF803F19F41416ACF3E4CF90916302B9
:102AA000893F29F41916F4F610926302DBCF8A3FAE
:102AB00019F497FFD7CFF8CF909164028B3F29F498
:102AC00097FFD0CF10926402CDCF8C3F19F4191626
:102AD000CCF3C8CF9FE0980F983090F4815F990BAA
:102AE00021E030E0B90102C0660F771F8A95E2F756
:102AF000CB01809590916002892380936002B2CFD0
:102B00008D3F31F480915E028E7F80935E02AACF6A
:102B10008E3F21F480915E028D7FF7CF8F3F09F0C9
:102B2000A1CF80915E028B7FF0CF08950E946B1D34
:102B30009C019091610280916202982B21F0309368
:102B40005B0220935A029091630280916402982B59
:102B500021F030935902209358028FE592E00C94B3
:102B6000481CEF92FF920F931F93CF93DF9300D0F7
:102B700000D000D0CDB7DEB786E0EFE5F2E0DE01B1
:102B8000119601900D928A95E1F7E0906102F09024
:102B9000620200916302109164021092610210922D
:102BA000620210926302109264028E2D8F2991F0BE
:102BB00080915A0290915B020E94831DAC0190911A
:102BC0005D02992309F43FC0809122018417150604
:102BD00008F447C0802F812B91F08091580290918A
:102BE00059020E94831DAC0190915C02992309F463
:102BF00077C080911F018417150608F47FC080916B
:102C0000610290916202892B90916302892B9091CD
:102C10006402892B11F00E94961586E0FE01319620
:102C2000AFE5B2E001900D928A95E1F726960FB6D6
:102C3000F894DEBF0FBECDBFDF91CF911F910F91F2
:102C4000FF90EF900895209157028AE0289F90010D
:102C500011242417350708F0BDCF9F5F90935D02C4
:102C600002C09F3FD1F7EE2059F00E944C149FEF15
:102C70001E140CF491E0899F802D11248093610231
:102C8000FF2059F00E944C149FEF1F140CF491E0A8
:102C9000899F802D11248093620230916102332339
:102CA00009F498CF20916202222309F493CF45EBD7
:102CB0003403C0011124992359F09093610245EB2C
:102CC000240390011124332339F03093620282CF20
:102CD00081E080936102F3CF81E0809362027ACF3A
:102CE000209156028AE0289F90011124241735076D
:102CF00008F085CF9F5F90935C0202C09F3FD1F7A1
:102D0000002359F00E948A149FEF10160CF491E0F2
:102D1000899F802D112480936302112359F00E9412
:102D20008A149FEF11160CF491E0899F802D1124D5
:102D30008093640230916302332309F460CF2091C1
:102D40006402222309F45BCF45EB3403C001112454
:102D5000992359F09093630245EB240390011124C9
:102D6000332339F0309364024ACF81E080936302C9
:102D7000F3CF81E08093640242CF86E0EFE5F2E09A
:102D8000DF011D928A95E9F710925D0210925C02B4
:102D900010925E0208950895FC01680F791F8FEF6D
:102DA00091E36E177F0709F408952191822728E0A7
:102DB00030E087FF06C0880F892721503109C9F705
:102DC000F0CF880FFACFCF93DF93EC01FB01828124
:102DD000882309F433C1C430FDE5DF07C0F5CB3FDC
:102DE0009CE5D90730F49E0122503C452431310541
:102DF000B0F50E94890C9093880280938702C131BC
:102E00008CE5D80709F4EEC008F069C0C930ECE5DC
:102E1000DE0709F4D5C0C8F5C5308CE5D80709F43C
:102E2000C7C000F5C330ECE5DE0709F4B9C008F00F
:102E3000BBC0C230DC4509F4ADC0809187029091DF
:102E400088020E94970C0E944E0680E008C0C2369D
:102E5000EDE5DE0771F2C63AFDE5DF0751F2DF91DD
:102E6000CF910895809187028062C7309CE5D90791
:102E700009F493C0809187028061C830DC4508F472
:102E80008CC080918702806488C0809187028B7F8C
:102E9000CD30FCE5DF0709F480C098F4809187020B
:102EA0008E7FCB309CE5D90709F477C080918702EB
:102EB0008C60CC30DC4508F470C0809187028D7F37
:102EC0006CC0809187028F7ECF30FCE5DF0709F46C
:102ED00064C008F47BC0809187028F7D5EC0CE3FC6
:102EE0009CE5D90709F47AC050F5C531FCE5DF0748
:102EF00009F486C098F480918702837FC3319CE5F2
:102F0000D90709F44AC008F471C00E944E06909196
:102F10008702892F97FB87F980583FC0CC3FFCE59B
:102F2000DF0709F449C008F055C08091880281602C
:102F3000CB3FDC4509F081CF809388027ECFC23041
:102F4000EDE5DE0709F468C0A8F4C1158DE5D807E2
:102F500009F452C0809188028360C130DD4560F37E
:102F600080918802982F909591708E7F892B90FB8D
:102F700081F9E2CFC236EDE5DE0709F451C0C63A69
:102F8000FDE5DF0709F453C0C330DD4509F055CF37
:102F900080E043C0809187028160809387024DCF9B
:102FA000809187028260F9CF809187028460F5CF9B
:102FB000809187028860F1CF809188028260BCCFC7
:102FC0000E944E06809187028068E7CF8091870239
:102FD000877FE3CF809188028E7FAECF8091880279
:102FE0008D7FAACF809187028F7BD7CF0E944E061C
:102FF000809187028F77D1CF809188028C7F9CCF80
:103000008091870282FB992790F921E0922790FB1B
:1030100082F990FB83F9C1CF81E00E941D0D0DCF95
:1030200090918702892F8F7E94FF8061B6CF909117
:103030008702892F8E7F90FF8160AFCF81E00FCF15
:103040000F931F9341E050E060E070E08A019B0124
:1030500004C0000F111F221F331F8A95D2F7C90128
:10306000B8010E94A3061F910F910C944E068B315C
:1030700009F461C040F58B3071F078F4863009F4C2
:1030800043C020F4853059F180E00895873009F479
:1030900044C08830C9F781E00895803109F459C0EF
:1030A00068F48E3089F790913202892F8B7F92FFDE
:1030B00084608093320282FD48C0EDCF863159F39F
:1030C000893149F3E1CF8A32E1F060F48732A9F027
:1030D00020F48E31C8F28D5111C08932A9F60E94B8
:1030E000E901D9CF833438F48A33F0F5853329F0F8
:1030F000883389F2C9CF833439F680E00E942018E2
:10310000CACF0E941B0DC7CF80913202807F80936F
:10311000320281E080936802089590913202892FF3
:103120008E7F90FF81608093320280FDB4CF817FDB
:1031300080933202B0CF90913202892F8D7F91FF20
:1031400082608093320281FFA6CF8091320281603B
:10315000EFCF90913202892F877F93FF8860809311
:10316000320283FDF2CF97CF8953C8CF80E0089514
:103170000C94B618CF93C82F809168028130B9F0B3
:10318000882331F08230A1F11092680280E00DC0F6
:103190000E94950B8232D1F78C2F0E94B6188111B4
:1031A0001BC08C2F0E9437188170CF9108950E9408
:1031B000950B823289F38C2F0E94B81881110AC0B6
:1031C000C43199F060F4CB3029F0C03169F782E066
:1031D0008093680281E0E8CF81E090E0E5CFC932DA
:1031E00021F0C833B9F380E0DFCF10926802FBCF43
:1031F000C93209F43FC0E8F4C431E1F128F4C73022
:1032000009F45BC081E0D1CF82EE8C0F8A30D0F719
:10321000CD51C0936702C33009F446C0B0F5C13048
:1032200009F43FC082E291E0C230B1F1109267022E
:10323000E9CFC03509F452C0B8F48AE0CF3411F7B1
:10324000E0916502F09166023097E1F22081082E4C
:10325000000C990B820F911D8F3F910509F00CF422
:1032600041C08FEF8083CECFC135D1F181E0C2352F
:1032700039F39BCF80916702882321F21092670275
:103280001092660210926502BDCFC53099F078F0B9
:103290008DE191E0C63051F690936602809365020D
:1032A000B1CF87E592E0F8CF81E291E0F5CF80E2FF
:1032B00091E0F2CF8EE191E0EFCF1092570284E1DE
:1032C00080932201C09321018CE38093200188E048
:1032D00080931E0188E280931D0194CF86EFB0CFCA
:1032E0008FEFAECF97FFBECF10828CCFCF93DF93FF
:1032F000EB0186319C4511F50E94950B9A8199232B
:1033000099F08A7A91E009F490E090936902811132
:1033100009C089E20E94700B0E94D50B80E0DF910A
:10332000CF91089585E3F6CF80916902811104C0A1
:1033300089E20E94770BF0CF85E3FBCF81E0EFCFEE
:103340000F931F93CF93DF93C42FD22FFC01828161
:103350008823C9F040936C020E946B1D90936B020E
:1033600080936A0280E28C0F883008F050C0C770EA
:1033700081E001C0880FCA95EAF7DF91CF911F91D4
:103380000F910C94C30310916C02141335C08091FB
:103390006A0290916B020E94831D843B910560F547
:1033A000C0E2CD0F1D17B9F080E2810F883040F4E4
:1033B000177081E001C0880F1A95EAF70E94CA03CE
:1033C000C83048F481E09D2F977001C0880F9A950E
:1033D000EAF70E94C303802F0E94BB03C830B8F4F1
:1033E000D77081E001C0880FDA95EAF7DF91CF91BD
:1033F0001F910F910C94CA0380E28C0F883038F42F
:10340000C77081E001C0880FCA95EAF7EFCFDF915E
:10341000CF911F910F9108950F939C01CB01243FF1
:103420004CE5340759F1A8F4293DFCE53F0701F1CB
:103430002A3D4CE53407D1F1283D3C4591F406E2A4
:1034400021EE41EE68ED7CE50E94A01980E00F912D
:103450000895263FFCE53F07E9F0B0F0273F3C45E3
:10346000F9F0FC018281882339F110926C02EFCFD0
:1034700007E225EE45EE69ED7CE5E6CF06E221EEBA
:1034800040EE64EF7CE5E0CF07E225EE44EE65EF29
:103490007CE5DACF06E221EE42EE66EF7CE5D4CFA2
:1034A00007E225EE46EE67EF7CE5CECF08E221E0AD
:1034B00045EE6AED7CE5C8CF81E0C9CF8EE1489B3F
:1034C00002C08150E1F7489BFECF0895589880E2F2
:1034D0008A95F1F7589A0895FC013BE03A95F1F787
:1034E00098E020E080E031E040E14A95F1F7880F74
:1034F000489B02C08160232742E04A95F1F7000013
:1035000040E14A95F1F7915079F790E19A95F1F7FA
:1035100099B132E03A95F1F7000040E14A95F1F7B0
:10352000917092272081920F90830895EF92FF92DD
:103530000F931F93CF93DF930F92CDB7DEB719820E
:103540008C017C01E60EF11C0E151F0561F481E073
:103550009981911180E00F90DF91CF911F910F9190
:10356000FF90EF9008950E945E1ACE0101960E948E
:103570006C1AF80181938F01E7CF509A589A0895F9
:103580005098589AE89AE9E6F0E080818C7F808331
:1035900008956150770B91E001C0990F6A95EAF7A1
:1035A00020E031E0911108C0222391F0589A80E286
:1035B0008A95F1F758980895492F482339F0589A79
:1035C000232740E24A95F1F79695ECCF5898F9CF2A
:1035D0005898EDCFFF920F931F93CF93DF93EC0199
:1035E0008C01060F111DC017D10731F4DF91CF9167
:1035F0001F910F91FF900895F9900E94661A68E05C
:103600008F2D0E94C91AEFCF1F920F920FB60F9203
:1036100011240F931F932F933F934F935F936F93B7
:103620007F938F939F93AF93BF93EF93FF93CF932A
:10363000DF930F92CDB7DEB719820E945E1ACE01DA
:1036400001960E946C1A082F069506950695282F5C
:1036500022952570902F9570290F922F93702695A3
:103660002695920F982797708981982B09F05CC056
:10367000043008F059C080E18A95F1F7589A509AC1
:1036800082E08A95F1F700C0589888E0089F800191
:103690001124D801AB5FBE4F1696ED91FC911797A0
:1036A0003097A9F060919D0170919E0114962D9123
:1036B0003C911597260F371F11968D919C9112976B
:1036C000680F791F13964C9113978C910995F80107
:1036D000EB5FFE4F6381662351F020919D01309195
:1036E0009E0184819581820F931F0E94EA1A0E9495
:1036F000661A80E18A95F1F758985098589A80E1B7
:103700008A95F1F7F801EB5FFE4F6081662351F077
:1037100020919D0130919E0181819281820F931FA2
:103720000E94961A0E945E1A0F90DF91CF91FF912E
:10373000EF91BF91AF919F918F917F916F915F9129
:103740004F913F912F911F910F910F900FBE0F90AE
:103750001F9018950F931F93CF93DF93EC0104975D
:103760000CF04CC0F894509A589885E08A95F1F77F
:1037700000009C2F969595708C2F8570980F892F3F
:1037800083709695969523E0CC0FDD1F2A95E1F77F
:10379000980F8E01092B0E94661A00C068E0802FE6
:1037A0000E94C91A80E18A95F1F75098589A489B6F
:1037B0001EC087E090E048991CC0FE01EB5FFE4F01
:1037C00063816623F9F020919D0130919E018481EF
:1037D0009581820F931F0E94961A811113C0509AEF
:1037E000589A7894DF91CF911F910F91089500C05E
:1037F000DECF019729F4509A589A789480E0F2CF5E
:1038000000C0D9CF0E945E1A80E28A95F1F75898DD
:10381000509A80E18A95F1F7CB5FDE4F688166238D
:1038200051F020919D0130919E0189819A81820FF2
:10383000931F0E94EA1A0E94661A789481E0D2CF00
:103840009093A1018093A0010895909373028093B7
:10385000720208950E940C12811103C080916D02C2
:103860000895E0917202F0917302309721F0019077
:10387000F081E02D099480E00895E0917202F091CA
:103880007302309721F00280F381E02D09940895AE
:10389000E0917202F0917302309739F022E0DC017E
:1038A0002C930480F581E02D0994089520917002F5
:1038B000309171022817390771F09093710280934B
:1038C0007002E0917202F0917302309721F006804D
:1038D000F781E02D0994089520916E0230916F02D6
:1038E0002817390771F090936F0280936E02E09170
:1038F0007202F0917302309721F00084F185E02D7F
:10390000099408959C012E5F3F4FAC01485F5F4FC3
:1039100080E02417350709F40895F90191919F017A
:103920009923B9F38F5FF5CF662349F0FC013296F6
:1039300008962191261729F0E817F907D1F780E0BA
:10394000089581E008959C01FC0132969FEF80E08C
:103950004191461751F09F3F19F4411101C0982F32
:103960008F5F8630A9F79F3F09F40895290F311D15
:1039700097FD3A95F90162830895FC013296089605
:103980002191261303C0DF0111971C92E817F90754
:10399000B9F708950C94A31C0C94BD1C029626E064
:1039A000FC0111922A95E9F7089508950C94D51C0D
:1039B000811105C081E0809374020C94D61C82E0D2
:1039C000FACF83E0809374020C94D61C0C94D81C1C
:1039D00081E0809374020C94D61C0C94E81C08952A
:1039E00008950C94F01C089508950C94EF1CCF9347
:1039F0000E94F31C0E9482110E94F41CC0E08C2FD4
:103A00000E944F10811105C0CF5FCA30C1F7CF911E
:103A1000089581E0FCCF08951F921FB61F921124D4
:103A20008F939F93AF93BF9380917502811113C0C1
:103A300080919F029091A002A091A102B091A20258
:103A40004196A11DB11D80939F029093A002A09367
:103A5000A102B093A202BF91AF919F918F911F904D
:103A60001FBE1F9018958091A702843031F10E94EB
:103A70004A021092750288E190E020E40FB6F894B3
:103A8000A895809360000FBE2093600083B7817F6C
:103A9000846083BF83B7816083BF7894889583B740
:103AA0008E7F83BF0FB6F894A895809160008861DF
:103AB00080936000109260000FBE08950E944E0631
:103AC0000C944E0282E084BD93E095BD9AEF97BDC1
:103AD00080936E0008952FB7F89480919F02909183
:103AE000A002A091A102B091A2022FBF08952FB70A
:103AF000F89460919F027091A0028091A102909130
:103B0000A2022FBF08959C014FB7F89480919F02A5
:103B10009091A002A091A102B091A2024FBF821B7E
:103B2000930B0895CF92DF92EF92FF922FB7F89404
:103B3000C0909F02D090A002E090A102F090A2025B
:103B40002FBFA7019601261B370B480B590BCA0143
:103B5000B901FF90EF90DF90CF90089578941F9275
:103B60001FB61F9211248F939F93AF93BF938091A1
:103B70009F029091A002A091A102B091A202019691
:103B8000A11DB11D80939F029093A002A093A1025A
:103B9000B093A202BF91AF919F918F911F901FBED2
:103BA0001F90189587E797E7909301088093000886
:103BB00088E19AE00FB6F894A895809360000FBE54
:103BC00090936000FFCF80918102089508959C0139
:103BD00082E08093E9009FEF8091E800915085FD9D
:103BE00006C085ED8A95F1F700009111F5CF80911F
:103BF000E80085FF0CC050E040E066E070E0C901DD
:103C00000E940D208091E8008E778093E80008954F
:103C1000CF93DF93EC0181E08093E9008FEF9091E7
:103C2000E800815095FD06C095ED9A95F1F70000EA
:103C30008111F5CF8091E80085FF14C050E040E08D
:103C400068E070E0CE010E940D208091E8008E7740
:103C50008093E80088E0FE01A9E7B2E001900D92B0
:103C60008A95E1F7DF91CF91089580937602709362
:103C70007802609377028091A702843001F582E098
:103C80008093E9008FEF9091E800815095FD06C088
:103C900095ED9A95F1F700008111F5CF8091E8003C
:103CA00085FF0DC050E040E063E070E086E792E001
:103CB0000E940D208091E8008E778093E80008959F
:103CC000BC0184E00C94351EBC0183E00C94351ECD
:103CD0008091A602811109C00E949D210E94FA21B3
:103CE0008091E20084608093E20008951092A60221
:103CF00008950C94E81C6091A30281E0611101C059
:103D000080E00C94E11C9091A70281E0943009F0CE
:103D100080E06091A3020C94E61C42E061EC81E03B
:103D20000E94192142E261EC82E00E9419219091E7
:103D3000A70281E0943009F080E06091A3020C9426
:103D4000D81C8091A902833009F460C030F481301E
:103D5000C9F1823009F49CC008958A3009F488C002
:103D60008B3009F46EC0893009F04FC08091A802F1
:103D7000813209F04AC08091AC029091AD02029765
:103D800008F043C08091E800877F8093E80080912D
:103D9000E80082FF36C09091F3008091F200029714
:103DA00031F48091F100813011F0863021F480915E
:103DB000F100809381028091E8008B778093E80086
:103DC0000C944D218091A802813AF9F48091E80089
:103DD000877F8093E8008091AC029091AD02892B9F
:103DE00061F468E089E792E070E00E945C208091D5
:103DF000E8008B778093E800089560E090E080E031
:103E0000F3CF8091A7028111C2CF08958091A802BB
:103E1000813AD9F78091AC029091AD02892BA9F734
:103E20008091E800877F8093E8008091E80080FF20
:103E3000FCCF80912F018093F1008091E8008E7774
:103E4000BDCF8091A802813201F78091AC029091A0
:103E5000AD02892BD1F68091E800877F8093E8003E
:103E60000E944D218091AA0280932F010C944E064E
:103E70008091A802813249F68091E800877F809383
:103E8000E8000E944D218091AB0280938202089548
:103E90008091A802813A09F0B8CF8091E800877F2D
:103EA0008093E8008091E80080FFFCCF809182023F
:103EB000C2CF84B7877F84BF0FB6F894A89580914E
:103EC0006000886180936000109260000FBE80E8FF
:103ED00090E00FB6F89480936100909361000FBE5C
:103EE0000C94ED1C0E949D210E94FA21E2EEF0E06C
:103EF00080818460808378940C94832483E291E0B1
:103F00000C94251C8091A7028530A9F48091A7020A
:103F1000853011F00C945E1D0E94331D8091A50226
:103F20008823A1F30E94F71C882381F30E94F71FC6
:103F30000E944E06EBCF089508950C949F1F292FE1
:103F400033272330310519F168F42130310509F4A4
:103F500044C02230310509F445C090E080E030E0F3
:103F600020E025C02132310549F122323105A9F77F
:103F700080E490E026EA32E061157105C1F08BE73C
:103F800090E02BE232E06130710589F0E6CF9927AD
:103F90008130910581F0009729F00297F1F6ECE964
:103FA000F1E002C0EAEDF1E0849190E09F01FA01B6
:103FB000318320830895EAECF1E0F6CF89E090E0C8
:103FC00020EF31E06115710591F389E090E029E07F
:103FD00032E06130710559F3C0CF82E190E029E110
:103FE00032E0E5CF8BE390E02EED31E0E0CF80E1F1
:103FF00089BD82E189BD09B400FEFDCF8091D80062
:104000008F7D8093D8008091E00082608093E000F3
:104010008091E00081FDFCCF0895AF92BF92CF92D6
:10402000DF92FF920F931F93CF93DF936C01EB010D
:104030008A010E946C21F82E811123C001151105FF
:1040400039F0F80180819181C81BD90BC80ED91EA7
:10405000B12CA12C2097A9F08091E80085FD22C009
:104060008091E8008E778093E80001151105A1F09A
:10407000F80180819181A80EB91EB182A08285E0ED
:10408000F82E8F2DDF91CF911F910F91FF90DF9030
:10409000CF90BF90AF9008950E946C218823D1F2F9
:1040A000F82EEFCFF60181916F018093F1002197F7
:1040B000FFEFAF1ABF0ACECFFC018091AE02909104
:1040C000AF0286179707A0F06115710529F490914A
:1040D000E8009E779093E80090E06115710551F437
:1040E000911108C08091E80082FF34C080E00895FB
:1040F000BC01F2CF8091A7028823C1F18530C1F1C4
:104100008091E80083FD30C08091E80082FDEACF15
:104110008091E80080FFE1CF8091F3002091F200D0
:10412000382F6115710519F02830310558F091E0EC
:104130002830310509F090E02091E8002E77209397
:10414000E800CBCF81918093F100615071092F5F1E
:104150003F4FE7CF8091A702882341F0853041F09F
:104160008091E80083FFBECF81E0089582E008954A
:1041700083E00895FC018091AE029091AF02861712
:104180009707A0F06115710529F48091E8008E77FA
:104190008093E80090E06115710551F4911108C019
:1041A0008091E80082FF35C080E00895BC01F2CF25
:1041B0008091A7028823C9F18530C9F18091E80078
:1041C00083FD31C08091E80082FDEACF8091E80054
:1041D00080FFE1CF8091F3002091F200382F61152C
:1041E000710519F02830310558F091E0283031057B
:1041F00009F090E08091E8008E778093E800CBCFC3
:1042000084918093F1003196615071092F5F3F4F87
:10421000E6CF8091A702882341F0853041F080915C
:10422000E80083FFBDCF81E0089582E0089583E038
:104230000895982F973028F08F708093E90081E0DF
:1042400008959093E900242F762F50E0981731F0CD
:104250007091EC002091ED005091F00021FD02C022
:104260009F5FE8CF3091EB003E7F3093EB003091C1
:10427000ED003D7F3093ED003091EB0031603093E5
:10428000EB007093EC002093ED005093F000209130
:10429000EE0027FDE5CF80E008958091A80287FF1A
:1042A00013C08091E80082FF06C08091E8008B7700
:1042B0008093E80004C08091A7028111F2CF089595
:1042C0008091A7028823D9F38091E80080FFF8CF7E
:1042D0008091E8008E77ECCF2091E4003091E500EA
:1042E00095E6A9012091EC00822F817020FF06C085
:1042F0008091E80080FF06C080E008952091E800EA
:1043000022FD1AC08091A702882389F0853089F0A8
:104310008091EB0085FD0FC02091E4003091E50015
:1043200042175307F9F29150E1F684E0089582E0D4
:10433000089583E0089581E008950E940B220E9471
:104340001322E0EEF0E0808181608083E8EDF0E010
:1043500080818F77808319BCA7EDB0E08C918E7F30
:104360008C9380818F7E80831092A60208950F9394
:104370001F93CF93DF930E940B220E941322C8ED5C
:10438000D0E088818F77888388818068888388815E
:104390008F7D888319BC1092A7021092A3021092FD
:1043A000A5021092A40200EE10E0F80180818B7F3C
:1043B000808388818160888342E060E080E00E94A1
:1043C0001921E1EEF0E080818E7F8083E2EEF0E063
:1043D000808181608083808188608083F801808112
:1043E0008E7F8083888180618883DF91CF911F9148
:1043F0000F910895E8EDF0E080818F7E8083E7EDF6
:10440000F0E080818160808384E082BF81E08093DE
:10441000A6020C94B721E8EDF0E080818E7F8083C6
:104420001092E20008951092DA001092E1000895CF
:104430001F920F920FB60F9211242F933F934F9319
:104440005F936F937F938F939F93AF93BF93EF93FC
:10445000FF938091E10082FF0BC08091E20082FF18
:1044600007C08091E1008B7F8093E1000E9482244D
:104470008091DA0080FF19C08091D80080FF15C0BC
:104480008091DA008E7F8093DA008091D90080FFDE
:1044900096C080E189BD82E189BD09B400FEFDCFEF
:1044A00081E08093A7020E94681E8091E10080FF56
:1044B00019C08091E20080FF15C08091E2008E7FDC
:1044C0008093E2008091E20080618093E20080911D
:1044D000D80080628093D80019BC85E08093A70241
:1044E0000E947B1E8091E10084FF2BC08091E2003E
:1044F00084FF27C080E189BD82E189BD89B5982FFD
:10450000917080FFFBCF8091D8008F7D8093D80081
:104510008091E1008F7E8093E1008091E2008F7EA8
:104520008093E2008091E20081608093E2008091BC
:10453000A302882309F449C084E08093A7020E9463
:10454000831E8091E10083FF29C08091E20083FFF8
:1045500025C08091E100877F8093E10082E0809315
:10456000A7021092A3028091E1008E7F8093E10068
:104570008091E2008E7F8093E2008091E200806172
:104580008093E20042E060E080E00E941921809187
:10459000F00088608093F0000E94791EFF91EF91F7
:1045A000BF91AF919F918F917F916F915F914F914B
:1045B0003F912F910F900FBE0F901F90189519BC2F
:1045C0001092A7020E94761E70CF8091E30087FDB3
:1045D00093E09093A702B3CF1F920F920FB60F9262
:1045E00011242F933F934F935F936F937F938F93F8
:1045F0009F93AF93BF93CF93DF93EF93FF93D091AC
:10460000E900DF708091EC00C82FC17080FDC0E828
:104610001092E9008091F000877F8093F0007894F9
:104620000E9430231092E9008091F000886080930E
:10463000F000CD2BCF70C093E900FF91EF91DF9197
:10464000CF91BF91AF919F918F917F916F915F912A
:104650004F913F912F910F900FBE0F901F90189583
:104660001F93CF93DF93CDB7DEB7AA970FB6F89419
:10467000DEBF0FBECDBF88EA92E02091F100FC01C1
:104680002193CF01F2E0803B9F07B9F70E94A11E62
:104690008091E80083FF1EC18091A8029091A90239
:1046A0009A3008F017C1E92FF0E0EC5BFA4D0C945A
:1046B000C424803899F0823809F00CC18091AC0292
:1046C0008F70873008F006C18093E9008091EB007D
:1046D00085FB882780F91092E90006C08091A4022A
:1046E0009091A502911182609091E800977F90933C
:1046F000E8008093F1001092F1008091E8008E773D
:10470000E5C0882309F4D3C0823009F0E3C080916A
:10471000AA028111D6C08091AC028F702FEF280FB2
:10472000263008F0D7C08093E9002091EB0020FFED
:10473000C8C0933031F48091EB0080628093EB002D
:10474000C0C09091EB0090619093EB0021E030E0CD
:1047500001C0220F8A95EAF72093EA001092EA003E
:104760008091EB008860EACF8111B4C01091AA0259
:104770001F778091E3008078812B8093E300809104
:10478000E800877F8093E8000E944D218091E80037
:1047900080FFFCCF8091E30080688093E30082E09B
:1047A000111183E08093A70295C08058823008F0F1
:1047B00091C08091AA029091AB028C3D23E09207B8
:1047C000A1F583E08A838AE289834FB7F894DE01FA
:1047D000139620E03EE051E2E32FF0E050935700C3
:1047E000E49120FF03C0E295EF703F5FEF708E2FE2
:1047F00090E0EA30C0F0C7968D939D932F5F2431EF
:1048000059F74FBF8091E800877F8093E8006AE204
:1048100070E0CE0101960E945C208091E8008B77C9
:104820008093E80057C0C096E7CF6091AC027091CA
:10483000AD02AE014F5F5F4F0E949D1FBC01892BEF
:1048400009F448C09091E800977F9093E80089812F
:104850009A810E94BA20E1CF8038E1F58091E8008A
:10486000877F8093E8008091A3028093F10045CF79
:10487000811130C09091AA02923060F58091E800D9
:10488000877F8093E8009093A3020E944D2180913E
:10489000A302882311F084E005C08091E30087FD26
:1048A000FACF81E08093A7020E948D1E13C08091F1
:1048B000AA02813079F481E0933009F080E080939E
:1048C000A5021092E9008091E800877F8093E800BC
:1048D0000E944D218091E80083FF0AC08091E8008A
:1048E000877F8093E8008091EB0080628093EB00EB
:1048F000AA960FB6F894DEBF0FBECDBFDF91CF9161
:104900001F9108950895CF938091A7028823A1F065
:10491000C091E900CF709091EC00892F817090FDDB
:1049200080E8C82B1092E9008091E80083FD0E9486
:104930003023CF70C093E900CF9108950E949D214C
:104940001092A7020895E8EDF0E0808180618083F5
:104950008AE18A95F1F700C08091D90081700895AD
:1049600097FB072E16F4009407D077FD09D00E941C
:10497000CA2407FC05D03EF4909581959F4F089579
:10498000709561957F4F0895EE0FFF1F0590F4918C
:10499000E02D0994AA1BBB1B51E107C0AA1FBB1F36
:1049A000A617B70710F0A61BB70B881F991F5A95BB
:1049B000A9F780959095BC01CD010895FB01DC011C
:1049C00004C08D910190801921F441505040C8F7E6
:1049D000881B990B0895FB01DC0102C001900D9228
:1049E00041505040D8F70895F999FECF92BD81BD4E
:1049F000F89A992780B50895A8E1B0E042E050E028
:104A00000C942825262FF999FECF92BD81BDF89AE6
:104A1000019700B4021639F01FBA20BD0FB6F89402
:104A2000FA9AF99A0FBE08950396272F0E9403253C
:104A30000E940225252F0E940325242F0C94032574
:104A40000196272F0E9403250C940225DC01CB013F
:104A5000FC01F999FECF06C0F2BDE1BDF89A31968E
:104A600000B40D9241505040B8F70895F894FFCF2C
:104A70000F040F0440044004D304EF046F046F04D8
:104A8000FA04860595059505592381236A24812317
:0C4A90006A24B423D5236A242C24382483
:104A9C00B40016020100000001000000000000003C
:104AAC00050100000004060000000000002808506A
:104ABC003C0714E31D081EE71D641E601EE61D0165
:104ACC00E200E900EA00B500B600B700CD008301B2
:104ADC00CC008A01920194012102230224022502B6
:104AEC00260227022A02B300B4006F0070008182F4
:104AFC0083E200E900EA00B500B600B700CD008300
:104B0C0001CC008A01920194012102230224022586
:104B1C0002260227022A02B300B4006F0070008143
:104B2C008283946697C63435F7313332363B0200B4
:00000001FF
