:100000000C9473010C940D1D0C9490010C949001B0
:100010000C9490010C9490010C9490010C9490011C
:100020000C9490010C9490010C9421240C94F524D0
:100030000C94151F0C9490010C9490010C94900159
:100040000C9490010C9490010C9490010C949001EC
:100050000C9490010C94B71F0C9490010C94900197
:100060000C9490010C9490010C9490010C949001CC
:100070000C9490010C9490010C9490010C949001BC
:100080000C9490010C9490010C9490010C949001AC
:100090000C9490010C9490010C9490010C9490019C
:1000A0000C9490010C9490010C94900129001E0076
:1000B0001F002000210022002B0014001A0008005D
:1000C00015001700E10004001600070009000A00EF
:1000D000E0001D001B00060019000500000000578D
:1000E000527450684C412C00230024002500260047
:1000F00027002D001C0018000C00120013002F0018
:100100000B000D000E000F00330034001100100032
:10011000360037003800876228002A414F61516459
:100120000157000001003A003B003C003D003E004A
:10013000010001002400250026000100010001004B
:100140002100220023000100010001001E001F0009
:100150002000010000002B182700370001000100DB
:100160003F004000410042002E00890001000100D4
:1001700052000100010001000100500051004F0039
:100180000100010001000100010001000100010067
:100190000100010001000100010000002C034400E7
:1001A00061006300740079006C002D004D00610057
:1001B0006E00750066006F0072006D002000280060
:1001C000350078003600290000000E03740073002B
:1001D00068006F0072007400000004030904090243
:1001E0003B00020100A0FA09040000010301010024
:1001F00009211101000122400007058103080001C7
:10020000090401000103000000092111010001227D
:100210007B0007058203200001120100020000009C
:10022000084D44363501000102000105010902A113
:100230000185020901A100050919012908150025F8
:1002400001950875018102050109300931158125E3
:100250007F95027508810609381581257F950175FE
:10026000088106050C0A38021581257F950175085D
:100270008106C0C005010980A101850319012AB7C3
:1002800000150126B700950175108100C0050C0905
:1002900001A101850419012AA002150126A00295D9
:1002A0000175108100C005010906A101050719E0CB
:1002B00029E715002501950875018102950175084A
:1002C00081010507190029FF150026FF0095067515
:1002D0000881000508190129059505750191029508
:1002E0000175039101C011241FBECFEFDAE0DEBF1C
:1002F000CDBF11E0A0E0B1E0EEEAFEE402C005905F
:100300000D92A63DB107D9F722E0A6EDB1E001C0FC
:100310001D92A83EB207E1F70E94C4140C943F2737
:100320000C9400009C013A9521153F4150F5FC01C9
:10033000EE27F170BC0166277270AC01442754703F
:100340009C012227387094FF0EC080E1EF2B09F446
:1003500080E0672B09F08062452B09F08064232B35
:1003600089F08068089581E0EF2B09F480E0672B25
:1003700009F08260452B09F08460232B19F0886016
:10038000089580E00895CF93DF93EB010E949201DE
:10039000FE01DF91CF910994CF93DF93EC01805E52
:1003A0009109089720F068EA76E0209711F461E35C
:1003B00074E0CE010E94C3018C2FDF91CF910C9489
:1003C0002503CF93DF93EC010E94BC03CE01805E36
:1003D0009109089720F06FEA76E0209711F468E31E
:1003E00074E0CE01DF91CF910C94C30181E00895B8
:1003F00081E008950C94F80108950C94FC011F937A
:10040000CF93DF9300D000D00F92CDB7DEB74983F2
:100410005A836B833091D90189819A8131111DC032
:100420006623B9F02223A9F00E947408182F682FC0
:1004300089819A810E941D0869817A81812F0F909C
:100440000F900F900F900F90DF91CF911F910C9410
:10045000740F0E944B08182FEFCF0E947408698117
:100460007A81EDCFFC01262F408151816281738119
:1004700084810C94FF0181E00895CF93DF93EC0118
:1004800060E00E943202BE01DF91CF910C94FD0129
:100490000C94CF100C94D21008950E94CA060E94AA
:1004A0004C022FEF84E39CE0215080409040E1F724
:1004B00000C000000C94DB1F0F931F93CF93DF93BA
:1004C0008C0161E00E943202EC01B8010E94731BB2
:1004D000B801CE010E94FA018823D9F1B801CE01FA
:1004E0000E94BC1B8823A9F1B801CE010E94911A79
:1004F000882379F1B801CE010E946817882349F159
:10050000B801CE010E94FB19882319F1F8018281FC
:10051000882361F0CB35FDE5DF0721F170F4C115CB
:10052000ECE5DE07A1F0CF3DDC45C9F0C801DF9165
:10053000CF911F910F910C94F601CC358DE5D80722
:10054000A1F0CD35DD4591F70E94E60CEFCF0E947A
:100550004D0280E0DF91CF911F910F9108950E948D
:100560009A0DF7CF0E94EF0CE1CF0E94F20CDECF84
:100570000E94FA1E0C94D0020E94D3020C94FE1E1C
:1005800008950C94C00281E008950C94C30208956C
:10059000CF93C82F0E94C1028C2FCF910C94C5021B
:1005A00080E00C94C8020E94331E0C94C8020E9482
:1005B000331E9091D801981721F08093D8010C94A4
:1005C000C8020895CF93DF93CDB7DEB72B970FB650
:1005D000F894DEBF0FBECDBF4F83588769877A87F7
:1005E0008B8761110E94340C1E821D8285E0FE0102
:1005F0003796DE01119601900D928A95E1F78C8174
:100600009D81892B89F449815A816B817C818D81FF
:100610009E810E94520B2B960FB6F894DEBF0FBE40
:10062000CDBFDF91CF91089589819A8189238F3F32
:1006300051F3CE0101960E943B028111E4CFEBCF32
:10064000FC01808191810C94B608CF93C82F882338
:1006500009F490C08238C1F40E94331E81FD8AC023
:1006600089E30E94EC0B0E94540C2FEF81EE94E082
:10067000215080409040E1F700C0000089E30E94D3
:10068000F30BCF910C94540C8338A1F40E94331EC9
:1006900080FD70C083E50E94EC0B0E94540C2FEF8C
:1006A00081EE94E0215080409040E1F700C00000CE
:1006B00083E5E5CF8438A1F40E94331E82FD5AC041
:1006C00087E40E94EC0B0E94540C2FEF81EE94E023
:1006D000215080409040E1F700C0000087E4CFCF78
:1006E0008CEF8C0F813AB8F48C2F0E943F19811146
:1006F00041C06C2F80913601909137010E949D1E60
:10070000882329F08C2F0E94F30B0E94540C8C2F0D
:100710000E94EC0BB6CF80E28C0F883048F4C77093
:1007200081E001C0880FCA95EAF70E94140CA9CF96
:10073000EBE5EC0FE33040F4F0E0EC56FE4F808147
:1007400090E0CF910C945F1EE8E5EC0FE73150F498
:10075000F0E0EE0FFF1FEA59FE4F80819181CF91AB
:100760000C94751ECD3E30F08C2F0E944815CF9111
:100770000C941B16CF910895882309F452C0823837
:1007800071F40E94331E81FF4CC089E30E94EC0B80
:100790000E94540C89E30E94F30B0C94540C833890
:1007A00059F40E94331E80FF3CC083E50E94EC0B8D
:1007B0000E94540C83E5EFCF843859F40E94331E15
:1007C00082FF2FC087E40E94EC0B0E94540C87E448
:1007D000E2CF9CEF980F913AF0F290E2980F9830A8
:1007E00050F4877091E001C0990F8A95EAF7892F3C
:1007F0000E941A0CD2CF9BE5980F933020F490E022
:1008000080E00C945F1E98E5980F973120F490E0FB
:1008100080E00C94751E8D3E20F00E94A2150C9471
:100820001B1608951F93CF93DF93182FEB010E949F
:100830002503209731F4812FDF91CF911F910C94E4
:10084000BC038FE99FE00197F1F700C000002197FA
:10085000F0CF70E060E0893311F460E570E00C9453
:100860001204882321F00E94140C0C94540C089557
:10087000882321F00E941A0C0C94540C0895BF9206
:10088000CF92DF92EF92FF920F931F93CF93DF935C
:100890006C01D62FC72FFC011281F580F2949FE0E6
:1008A000F9220E940A0CE82E8823B9F0E12E1123C8
:1008B000A1F08C2F807F803421F080E28D0F883072
:1008C000D0F08091C00282FD16C082E00E94B50C7B
:1008D0000E940A0C91E0E82EE926BC2EB2948FE02B
:1008E000B822FBE0FB1508F468C0EB2DF0E0EF5BED
:1008F000F84D0C94CD26E12CF0CF0C2F0F70C07F5B
:1009000011F00295007F112399F0002359F080E245
:100910008D0F883010F0D11107C0802F0E94140C69
:100920000E94540C8D2F41C0802F0E94270CF8CFBD
:100930008D2F0E94BC03002309F43FC080E28D0F7D
:10094000883010F0D11104C0802F0E941A0C03C00F
:10095000802F0E942D0C0E94540C2FC00C2F0F7062
:10096000C07FC03211F00295007FDD2381F0D130CD
:1009700009F469C0112309F473C0FF2009F469C0A8
:10098000F601858180FFCECF8F70858362C0809114
:10099000C00282FF38C0112359F0002329F0802FB4
:1009A0000E94140C0E94540C80E00E94250305C094
:1009B00080E00E94BC030111C7CFEB2DE850FF0B74
:1009C000349720F40E94331E0E94C802EE2009F4DE
:1009D00072C10E94060C80FD6EC1F60112820E9457
:1009E000000C0E948107C6010E947C060E94000C38
:1009F000DF91CF911F910F91FF90EF90DF90CF90FB
:100A0000BF900C94A207112389F0F11006C00E9438
:100A1000370C802B0E943104D0CF21E0F212F7CFA7
:100A20000E94370C802B0E943D0CC7CFF11006C0EE
:100A30000E944A0C802F0E943804BFCF31E0F31689
:100A400009F4BBCFF5CF112331F085E08F1508F401
:100A5000B4CF802FDFCF94E09F1508F4AECFEACF5C
:100A6000FF2041F3D93349F4FFEF27EE33E0F15093
:100A700020403040E1F700C000008D2F0E94BC03F1
:100A80009CCF8C2F86958695837069F0813009F014
:100A900094CF8D2F9C2F9370111102C090E080E0B5
:100AA0000E94751E8ACF8D2F9C2F9370111102C04A
:100AB00090E080E00E945F1E80CF8D2F112329F0EF
:100AC0000E9448150E941B1678CF0E94A215FACFEB
:100AD0008C2F837009F041C011116FCF4D2F4295BB
:100AE00046954770440F440F0D2F0F7010E030E013
:100AF00020E0042E04C0000F111F221F331F0A9490
:100B0000D2F760E070E0CB01D4FF0FC06FE070E07F
:100B100080E090E004C0660F771F881F991F4A95F8
:100B2000D2F76095709580959095C695C695C370DF
:100B3000602B712B822B932BC23049F058F4C130BB
:100B400019F00E94330739CF0E94210736CF0E9447
:100B5000450733CF0E941F0730CF8695112311F030
:100B60008C2F8170882309F428CF4D2F429546950C
:100B70004770440F440F0D2F0F7010E030E020E05D
:100B8000042E04C0000F111F221F331F0A94D2F736
:100B900060E070E0CB01D4FF0FC06FE070E080E058
:100BA00090E004C0660F771F881F991F4A95D2F7FF
:100BB0006095709580959095C695C695C370602B8D
:100BC000712B822B932BC23049F058F4C13019F0AD
:100BD0000E94F807F2CE0E94E607EFCE0E940A08B4
:100BE000ECCE0E945B07E9CECF70112329F08C2F49
:100BF0000E9481078D2F0ECF8D2F0E9438048C2FDD
:100C00000E94A207DACED23F51F160F4D03FB9F092
:100C1000D13F81F0112309F449C0F11083CE8C2F0C
:100C20008F7121C0D33F11F1D43FA1F78091C00251
:100C300082FF26C08C2F8F71112311F314C0112352
:100C400049F084E08F1508F4B8CE8C2F8F710E9484
:100C5000C507B3CE95E09F1508F4AFCEF6CF8C2F25
:100C60008F711111CDCF0E948107A7CE112329F0DA
:100C70008C2F8F710E946C07A0CE0E9467079DCEBB
:100C8000112349F0CF718C2F0E94810763E08C2FD4
:100C90000E949A0C92CE81E00E94B50CE1E0EF1523
:100CA00008F08BCE82E00E94B50C87CEF110DACE30
:100CB0008C2F8F71A5CFDF91CF911F910F91FF9056
:100CC000EF90DF90CF90BF9008950F931F93CF9335
:100CD000DF93EC01688179818A810E94C0088C01D0
:100CE0000E941C080E941E07B801CE01DF91CF911F
:100CF0001F910F910C943F04CF93DF93EC018B81F4
:100D00009C81892B29F08881998189238F3F59F40F
:100D1000DF91CF910895CE010E946506CE01DF914B
:100D2000CF910C943D02CE010E945C028111F3CF61
:100D30000E940A0C882361F38A81882349F38091F9
:100D4000C00282FDE5CF82E0DF91CF910C94B50C1B
:100D5000882321F00E94270C0C94540C08958823BA
:100D600021F00E942D0C0C94540C089590E080E02A
:100D70000E945F1E90E080E00E94751E0E94340C6D
:100D80000E94540C0E9442170C941B160E94FA0BEE
:100D90000C94B6060E94210C0C94C60692959F7086
:100DA000963091F058F4925F9F70923058F4803FE3
:100DB00019F030F4883E30F481E008959A5FF4CF62
:100DC000843FD1F380E00895883EB0F3813FD1F7AE
:100DD000F3CFFC01808191810E94B6080C94CE066D
:100DE000CF93DF9300D000D00F92CDB7DEB70F9036
:100DF0000F900F900F900F90DF91CF910895CF93A8
:100E0000DF9300D000D000D0CDB7DEB726960FB666
:100E1000F894DEBF0FBECDBFDF91CF910895089546
:100E20000C940F070E94100760930602709307024C
:100E300080930802909309020C94B60608950C94CE
:100E400012070F931F930091060210910702209141
:100E5000080230910902602B712B822B932B1F917A
:100E60000F910C9412070F931F930091060210919B
:100E70000702209108023091090260237123822326
:100E800093231F910F910C9412070F931F930091BE
:100E90000602109107022091080230910902602792
:100EA0007127822793271F910F910C9412070C949E
:100EB0000F070C9457070E94590760930202709322
:100EC000030280930402909305020C94B60660E03E
:100ED00070E0CB010C945B070F931F9341E050E04F
:100EE00060E070E08A019B0104C0000F111F221F07
:100EF000331F8A95D2F7C901B8011F910F910C9445
:100F00005B070F931F9341E050E060E070E004C086
:100F1000440F551F661F771F8A95D2F780910202F2
:100F200090910302A0910402B09105028A019B01F5
:100F3000082B192B2A2B3B2BC901B8011F910F91AC
:100F40000C945B070F931F9341E050E060E070E06A
:100F500004C0440F551F661F771F8A95D2F7CB0137
:100F6000BA0160957095809590950091020210915C
:100F70000302209104023091050260237123822331
:100F800093231F910F910C945B070F931F9341E0E4
:100F900050E060E070E004C0440F551F661F771FEB
:100FA0008A95D2F78091020290910302A0910402E7
:100FB000B09105028A019B01082719272A273B27A0
:100FC000C901B8011F910F910C945B070F931F93F8
:100FD0000091020210910302209104023091050257
:100FE000602B712B822B932B1F910F910C945B071D
:100FF0000F931F93009102021091030220910402AB
:101000003091050260237123822393231F910F9156
:101010000C945B070F931F9300910202109103023F
:1010200020910402309105026027712782279327BF
:101030001F910F910C945B070895E92FEE0FE90FB4
:10104000EE0F8E0F982F977041E001C0440F9A95D4
:10105000EAF786958695869595E0899FF00111249B
:10106000E652FE4F30E020E070E05191DF01119731
:10107000CB01022E02C0969587950A94E2F7817003
:1010800081958527842385278C932F5F3F4F2530BB
:10109000310559F70895E92FEE0FE90FEE0F8E0F86
:1010A000982F977086958695869525E0829FF0010A
:1010B0001124E652FE4F50E040E080E0219130E004
:1010C000092E02C0369527950A94E2F7217033273E
:1010D000042E01C0220F0A94EAF7822B4F5F5F4F64
:1010E0004530510559F70895BF92CF92DF92EF92A4
:1010F000FF920F931F93CF93DF938C01C090020256
:10110000D0900302E0900402F09005028091060264
:1011100090910702A0910802B0910902C82AD92A29
:10112000EA2AFB2ACFE1D0E0BC2ED701C6010C2E63
:1011300004C0B695A795979587950A94D2F780FD38
:101140000EC0219788F7B12C8B2DDF91CF911F9185
:101150000F91FF90EF90DF90CF90BF900895B8016E
:101160008C2F0E94880F019761F3EECFCF93DF930E
:10117000EC010E947408BE01DF91CF910C94880F9E
:101180001F93CF93DF93EB019091D901992331F015
:10119000CB01DF91CF911F910C94B608882379F091
:1011A000CB010E947408182F682FCE010E941D08E1
:1011B000BE01812FDF91CF911F910C94880FCB013D
:1011C0000E944B08182FF4CF1F93CF93DF93C09149
:1011D0000A0216E080910B028C1304C0DF91CF91BC
:1011E0001F910895D0E01C9FF0011D9FF00D112468
:1011F000E45FFD4F408151816281738184819581DB
:101200000E94FF062196C770E5CF40913C025091A5
:101210003D0260913E0270913F02809140029091A8
:1012200041020C94FF0620910A0290910B0256E0B5
:10123000291302C080E0089530E0529FF001539FCF
:10124000F00D1124E45FFD4F7181761306C07081AB
:10125000781303C07281741304C02F5F3F4F27704F
:10126000E7CF81E00895FF920F931F93CF93DF9311
:1012700080914102807FD1F480913E028823B1F0B9
:1012800080910A0210910B0260913C0270913D0224
:10129000A0913F02B0914002062F0723C091340174
:1012A000D091350196E0F92E181306C0DF91CF9149
:1012B0001F910F91FF90089590E0109711F00F3F4C
:1012C00019F401968770F0CFF89E9001F99E300DC9
:1012D0001124F901E45FFD4F41814713F2CF4081B2
:1012E0004613EFCF42814111ECCF438154814A1B19
:1012F0005B0B4C175D0728F7809141028F7080616E
:1013000080934102F901EF5EFD4F80818F70806113
:1013100080838CE392E00E947C06DF91CF911F9145
:101320000F91FF900C94E4088F929F92AF92BF921E
:10133000CF92DF92EF92FF920F931F93CF93DF93A1
:10134000CDB7DEB761970FB6F894DEBF0FBECDBF45
:101350008C0185E0F801DE011D9601900D928A95C1
:10136000E1F7D8011296EC9012978CE3A82E82E058
:10137000B82E40913F02509140024115510509F4A9
:1013800072C190913C0220913D02892F82238F3FB0
:1013900009F469C1CC901196DC90119713968D9049
:1013A0009C901497F0903E02B401641B750B409121
:1013B000340150913501FF2009F403C180914102AD
:1013C000382F307F6417750708F0BDC0311188C011
:1013D000FE2CD21225C09C1123C0E11021C08F70B9
:1013E0008061809341020E940509C5010E947C062C
:1013F00080914102F80185838F2D61960FB6F89494
:10140000DEBF0FBECDBFDF91CF911F910F91FF9037
:10141000EF90DF90CF90BF90AF909F908F90089506
:101420008114910429F08D2D8C218F3F09F037C153
:1014300080E080FF15C04E2D6D2D8C2D0E9413096C
:10144000882371F08CE392E00E947C0686E0ECE356
:10145000F2E0DF011D928A95E9F70E9405093EC07E
:10146000892829F08D2D8C218F3F09F015C180E04E
:10147000B82FB170AB2E80FF29C04E2D6D2D8C2D55
:101480000E941309B82E811121C0CD86DE868D857C
:101490009E850E94B608292F22952F70223050F089
:1014A000243078F49F7051F0F8019581907F31F4E9
:1014B000FB2CA2CF9F7011F08823D1F3805E88307F
:1014C000B8F3C8010E947C06BA2CF2CFEE2009F4D2
:1014D00093CF80914102816080934102F12C8CCFA7
:1014E000D21205C09C1103C0EE2009F487C0C801C8
:1014F0000E94E906882319F1EE2009F1809141024A
:10150000803270F020913C0230913D0238872F8369
:1015100019869B868A868C87CE0107960E947C0658
:1015200086E0F801ACE3B2E001900D928A95E1F714
:101530000E9433090E940509FF24F3945DCFC8017E
:101540000E947C06F9CF311112C0782D998A888AC1
:10155000A6016E2D89890E94F0068CE392E00E941C
:101560007C0686E0F50111928A95E9F776CFD212D2
:101570000FC09C110DC0E1100BC015968C93C801D3
:101580000E947C0686E0F50111928A95E9F734CF36
:10159000C8010E94E906882391F2EE2081F2809131
:1015A0004102803208F4BCCF20913C0230913D02D0
:1015B0003A8329831B829D828C828E83CE01019681
:1015C000ADCF6417750708F040C0FE2CEE2009F47B
:1015D000B6CFD2122CC09C112AC08091410280FD4E
:1015E0001DC0982F907FD1F015968C931597903F42
:1015F00039F0982F907F905F8F70892B15968C9380
:10160000C8010E947C0686E0F801ACE3B2E00190DC
:101610000D928A95E1F70E940509EECE86E0F80169
:10162000ACE3B2E001900D928A95E1F7E5CEC801F6
:101630000E94E906811174CF8091410281608093FC
:101640004102C8010E947C06D7CE782D998A888AEB
:10165000A6016E2D89890E94F00686E0F50111929F
:101660008A95E9F7D8CFEE2009F469CFC8010E9426
:10167000E906F82E882309F462CF86E0F801ACE38E
:10168000B2E001900D928A95E1F78CE392E00E941E
:1016900020030E943309BFCF81E08E25E9CE81E08F
:1016A0008E25C7CE1F93CF93DF93CDB7DEB72C9790
:1016B0000FB6F894DEBF0FBECDBF4F835887698742
:1016C0007A878B879C87CE0107960E94940988238E
:1016D00069F08A859B85892B39F04F815885842F45
:1016E00085238F3F09F071C016E05FC086E0FE01E0
:1016F0003796DE01119601900D928A95E1F78A8561
:101700009B85892B89F38F81988589238F3F61F38E
:1017100020910B0230E0C901019687709927409112
:101720000A024817190671F40E94CA0610920B02A9
:1017300010920A0286E0ECE3F2E0DF011D928A9546
:10174000E9F7D2CF96E0929FD001939FB00D11247C
:10175000A45FBD4FFE01319601900D929A95E1F77D
:1017600080930B020E94E408BFCF819FC001112427
:10177000845F9D4F0E9494098823E9F0E0910A025A
:101780001E9FF0011124E45FFD4F40815181628171
:101790007381848195810E94FF0680910A0290E006
:1017A00001968770992780930A0280910A0290918E
:1017B0000B028913DACF2C960FB6F894DEBF0FBE5A
:1017C000CDBFDF91CF911F91089569857A858B8573
:1017D0009C850E94FF0688CF682F809136019091EA
:1017E00037010C94D31E682F8091360190913701F8
:1017F0000C94D51E80913601909137010C94D71E20
:1018000080914A02859585958595089580914A0233
:101810008770089590914A02977081E009F480E002
:10182000089580915502089590915502892B8093D7
:1018300055020895809590915502982390935502F2
:101840000895109255020895809154020895909140
:101850005402892B809354020895809590915402EC
:101860009823909354020895109254020895809101
:101870004B02089508950C943A0C9091C00292FD89
:1018800008C090914B02981721F080934B020C9462
:101890003B0C089580914B02882329F010924B0253
:1018A00080E00C943B0C0895CF93DF93E0913601D8
:1018B000F0913701809155028083E0913601F091DB
:1018C0003701808190915402892B808390914B0243
:1018D000992381F0E0913601F09137018081892BC5
:1018E000808380913601909137010E948B1E811177
:1018F0000E944A0CC0913601D091370148E050E077
:1019000062E472E0CE010E94E726892B69F088E04C
:10191000FE01A2E4B2E001900D928A95E1F7CE01BA
:10192000DF91CF910C94461EDF91CF9108950895D9
:101930000C94970C9091C00292FD10C098E0899F82
:1019400090011124622B60934A020E9481078091CA
:101950004A028595859585950C94980C0C94810781
:1019600010924A0280E00C94980C90914A02809563
:10197000892380934A02282F277091F4282F082E5C
:10198000000C330B9217130659F09091C00292FD90
:1019900007C08595859585950E94A2070C94B00C8B
:1019A00008959091C00292FB222720F9281769F030
:1019B00080FB92F99093C0028091BF029091C00287
:1019C0000E94160D82E00C94B50C08958091C0021F
:1019D00082FB882780F991E089270C94D10C81E063
:1019E0000C94D10C80E00C94D10C90E080E00E942B
:1019F000052721E0893E9E4F09F020E0822F0895BF
:101A000082E090E00C94FD2683E090E00C94FD26AB
:101A1000CF9384E090E00E94FD26C82F82E290E000
:101A20000E94FD26982F8C2FCF910895CF93C92F18
:101A3000682F84E090E00E940B276C2F82E290E0F8
:101A4000CF910C940B27AB01BC018FE090E00C947C
:101A50001D27AB01BC0183E190E00C941D2760E0E1
:101A600070E0CB010C94290D60E070E0CB010E9486
:101A7000230D0C942F0D69EE7EEF90E080E00E9424
:101A8000292760E082E090E00E940B2760E083E07D
:101A900090E00E940B27109206021092070210920B
:101AA00008021092090260E084E090E00E940B2797
:101AB00060E082E290E00E940B2760E085E090E029
:101AC0000E940B2760E086E090E00E940B276FEFFA
:101AD00087E090E00E940B2740E050E0BA0188E0E8
:101AE00090E00E941D2760E08DE090E00E940B27AF
:101AF00040E050E0BA0188E190E00E941D2760E0DC
:101B000087E190E00E940B2740E050E0BA018CE1B1
:101B100090E00E941D2770E060E080E290E00E946B
:101B2000292740E050E0BA0188E190E00E941D279B
:101B30000C94340D0C943B0D682F8EE090E00C94C7
:101B40000B270E94801F609364027093650280934C
:101B500066029093670260936002709361028093C3
:101B6000620290936302089585B7806885BF85B748
:101B7000806885BF0895089508950C94BC0D08955C
:101B80000C94BF0D0E94B40D87EA90E10E94291EBB
:101B90000E94BB0D0C94BD0D0C94911208950895F4
:101BA0000E94CE0D0C94CF0D0E94AA100C94C70277
:101BB0000E946B1F0E9466100E94AB120E94E511EA
:101BC0000E94D40D0E9450170E94B5120C94C00DB3
:101BD0009F92AF92BF92CF92DF92EF92FF920F93BC
:101BE0001F93CF93DF93CDB7DEB72A970FB6F89444
:101BF000DEBF0FBECDBF0E940712C82E81110E940A
:101C0000A10D86E5A82E82E0B82E10E000E0902E0F
:101C1000802F0E94D410E82EF501F1905F01F81694
:101C200009F445C08091680281FD0E94DA108F2D71
:101C30008E25D12CFF24F394982F9F2199F10E9497
:101C4000CC0D882399F0DE829F82EF2081E009F499
:101C500080E088870E94741F8160782F9A87898727
:101C60004E815F8168858A850E94E202F801EA5A06
:101C7000FD4F8081F826F08281E0C11001C080E034
:101C80002A960FB6F894DEBF0FBECDBFDF91CF917D
:101C90001F910F91FF90EF90DF90CF90BF90AF908A
:101CA0009F900895D394FF0CF6E0DF12C5CF0F5F2D
:101CB0001F4F0A30110509F0AACF8FEF89838A835D
:101CC0001B820E94741F8160782F9D838C834981C1
:101CD0005A816B818D810E94E202CECF0E949112C7
:101CE00081110C94171C08950E94E80D0E946E0E3D
:101CF0000E9436160C94D702CF93DF930E948C0F6C
:101D0000EC01811521E5920708F042C0811530E50C
:101D1000930708F09DC0883E910530F5803E9105FF
:101D200008F092C0883A910588F4853A910508F048
:101D300084C08130910509F487C0009709F484C0FC
:101D4000049708F081C0D0E0C0E07EC08F3B9105D1
:101D5000D0F7C85AD0E0CC0FDD1FC956DE4F09902E
:101D6000D881C02DD46470C08115904250F4C11543
:101D700081E0D80708F068C0CD3ED10520F3D065DA
:101D800063C0C11590E4D907F0F2DF70D06A5CC07F
:101D9000811525E5920700F5811534E5930708F0D4
:101DA0008BC0811543E5940708F073C0C11582E527
:101DB000D80708F469C0CE018370992721E030E08C
:101DC00002C0220F331F8A95E2F7C695C69580E2BE
:101DD000C89FE001112454C0C11599E5D907A8F4A2
:101DE000C11528E5D20708F06CC0C11536E5D30748
:101DF00008F0A9CF8C2F0E942310C82FD0E0DC2F31
:101E0000CC27CC27DF71D0621FC0C1154AE5D407AB
:101E100008F45CC0CE0190568115904208F093CF33
:101E20008D2F8F710E94231090E0982F882788278C
:101E30009F719C012C2BE901E6CFC55AD0E0CB5312
:101E4000DE4FC881D0E0D064CE01DF91CF910895FC
:101E5000E4E096958795EA95E1F783702C2F269517
:101E60002695237040E2249F90011124382B8C2F5B
:101E70008370C1E0D0E002C0CC0FDD1F8A95E2F78D
:101E8000C22BD32BDC68E0CFDC2FCC27C16FD06A0C
:101E9000DBCF8370992721E030E002C0220F331F8F
:101EA0008A95E2F7C695C69590E2C99FE001112494
:101EB000C22BD32BDA68C8CFD82FCC27C46FD06AF7
:101EC000C3CFDC2FCC27C06FD06ABECF8C2F8F70D2
:101ED0000E94231034E0D695C7953A95E1F7CF706C
:101EE0009C2FEC01D069B0CF972F70E026E0929F35
:101EF000600D711D1124FB019CE3899FE00DF11D14
:101F00001124EE0FFF1FE455FF4F85919491089522
:101F10000E94740F0C947C0E82389105B1F1B0F4DC
:101F20008133910509F475C048F48932910509F4AB
:101F300069C08A32910509F473C00895853391050B
:101F400009F459C08933910501F10895833E910543
:101F5000A9F138F4803E9105F9F0823E910549F1EE
:101F60000895863E9105A9F1873E9105C9F1843E09
:101F7000910519F52091C00221FF1FC08091BF0279
:101F800084FD14C087EE90E008952091BF02237075
:101F9000A1F080EE90E008952091BF0220FD47C09F
:101FA0003091C00230FF09C024FF44C090E080E0BF
:101FB00004C02091BF0222FDF7CF08952091BF02F7
:101FC00022FD3BC03091C00230FDE3CF24FFF5CFAE
:101FD000EDCF2091BF0223FFF0CF24FDE7CFD2CF7A
:101FE0002091BF0223FD2CC03091C00231FFEECF03
:101FF00084EE90E008952091BF0225FFDECF89E2B4
:1020000090E008952091BF0225FFD7CF85E390E0AF
:1020100008952091BF0226FFD0CF8AE290E0089574
:102020002091BF0226FFC9CF81E390E0089589E3A4
:1020300090E0089583EE90E0089582EE90E0089598
:1020400086EE90E008959091BF0292FF06C0282F7F
:1020500028712830F9F4877F846093FF06C0282F09
:1020600028712831F1F4877E84612091C00220FF1D
:1020700006C0382F38713830D9F4877F816021FF4E
:1020800006C0282F28712831D1F4877E816194FD04
:10209000877E0895282F24712430F9F68B7F88607D
:1020A000DCCF282F2471243101F78B7E8861DDCFAE
:1020B000382F3171313019F78E7F8860E0CF282FAB
:1020C0002171213121F78E7E8861E1CF1092BB0210
:1020D0001092BC021092BD021092BE020895CF92DF
:1020E000DF92EF92FF926B017C010E9491128111AD
:1020F0000EC00E94801FC61AD70AE80AF90AC092C9
:10210000BB02D092BC02E092BD02F092BE02FF90F0
:10211000EF90DF90CF9008950F931F930E9491123C
:10212000882321F01F910F910C94801F0E94801F23
:102130000091BB021091BC022091BD023091BE0201
:10214000600F711F821F931F1F910F91089580E0F0
:10215000089508950E94F50C811102C00E949A0D05
:102160000E94000D809368020E94080D9093C002A7
:102170008093BF020E94A9100E94040D682F70E096
:1021800090E080E00E941F076091020270910302BC
:1021900080910402909105020C94590708950C94C3
:1021A000CE1008950C94D110E82FF0E0E453FD4FC9
:1021B00080810895089580EA8A95F1F7089500C016
:1021C00008950C94DB1008950C94E310EF92FF92A5
:1021D0000F931F93CF93DF9300D000D00F92CDB712
:1021E000DEB70E949112F82E6091D602882309F47E
:1021F00048C085E0E82E8E010F5F1F4FF8018E2D3D
:1022000011928A95E9F7862F90E0B80184539D4F8B
:102210000E94C3128823F9F08091C10290E045E04A
:1022200050E0B80184539D4F0E94E72621E020939F
:102230006902892BD1F4F12C0E944A028F2D0F9054
:102240000F900F900F900F90DF91CF911F910F91F2
:10225000FF90EF90089580916902882361F3F8015F
:102260001192EA94E9F710926902A091C102B0E0DC
:10227000A453BD4F85E0F80101900D928A95E1F7D6
:10228000DBCF70E064537D4F8091C10290E08453B6
:102290009D4F0E944B130E94E410D0CFF894E82F7A
:1022A000E295EF70F0E031A1282F2F7081E090E0EF
:1022B00001C0880F2A95EAF7982F9095932391A350
:1022C00092A1892B82A378940895CF93DF93CEECCB
:1022D000D1E089918F3F11F00E944E1181E0C33D02
:1022E000D807B9F7C8ECD1E089918F3F11F00E946F
:1022F0004E1181E0CE3CD807B9F7DF91CF91089518
:10230000CF92DF92EF92FF920F931F93CF93DF93C1
:10231000EC01D62E062F10E0C80182539E4F7C019F
:10232000FC0180818F3F09F445C0F894E82FE295C5
:10233000EF70F0E091A18F7021E030E001C0220F3A
:102340008A95EAF7892F822B81A382A120952823E1
:1023500022A378940E94DF10E8ECF1E04EEC51E00B
:1023600031E0C12C21912F3F71F1A22FA295AF70C6
:10237000B0E090968C9190E02F7002C09595879573
:102380002A95E2F780FD1FC0832FC82A330F4E170E
:102390005F0741F7F70180818F3F11F00E944E11D6
:1023A00061E0C11001C060E08D2D0E94E110C00FFE
:1023B000D11FC882DF91CF911F910F91FF90EF90B5
:1023C000DF90CF90089580E0E0CF80913801809138
:1023D000380195E0811190E09093D60285E0891B49
:1023E0008093C1020E9465118AE0ECECF2E0DF010B
:1023F000982F1D929A95E9F7E2ECF2E0DF011D9229
:102400008A95E9F785E00E945A120C944802EF92EF
:10241000FF920F931F93CF93DF93CDB7DEB72A9729
:102420000FB6F894DEBF0FBECDBF8E010F5F1F4FFA
:102430008AE0F80111928A95E9F7F12C6F2DC80115
:102440000E948011F394F5E0FF12F8CF4AE050E0CB
:10245000B80182EC92E00E94E7267C0121E0892B02
:1024600009F420E0E114F10441F08AE0F801A2EC63
:10247000B2E001900D928A95E1F76091D60270E08A
:1024800064537D4F45E082EC92E00E945B1281E054
:1024900090E0EF2811F40E94E6102A960FB6F89407
:1024A000DEBF0FBECDBFDF91CF911F910F91FF9087
:1024B000EF9008950895FF920F931F93CF93DF93AA
:1024C000F82E092F162FD72FC42F222349F081E091
:1024D00080936C020E94741F90936B0280936A0237
:1024E00080916C028823A1F080916A0290916B0226
:1024F0000E948C1F059760F0EF2DF02FA12FBD2FAC
:10250000CE0FDF2FD11DEC17FD0741F410926C02A6
:10251000DF91CF911F910F91FF90089581918D933D
:10252000F2CF80916F02811107C00E94AC268823F0
:1025300051F081E080936F0281E090916F029130C1
:1025400009F080E0089582E080936F020E94A72640
:10255000F3CF0C9491120E94A912809338010E942B
:10256000911281110C94F91208950E949112811117
:1025700002C00C94FB12089581E0909170029A3091
:1025800008F080E008950F931F93CF93DF93EC0141
:102590008B01809170028A30B8F4B801CE010E949C
:1025A0004913C82F811122C0809170028F3FB9F466
:1025B0000E94741F90936E0280936D028C2FDF91A6
:1025C000CF911F910F91089580916D0290916E02AD
:1025D0000E948C1F843F914000F7C0E0EFCF8F5FD7
:1025E000809370028A3020F7C1E0E8CF1092700229
:1025F000E5CF0C94C61C0C94C91CDF92EF92FF929D
:102600000F931F93CF93DF937901C82F880FDD0BB2
:1026100041155105A9F0FE0193E0EE0FFF1F9A95B9
:10262000E1F7E75CFE4F818192818F589D4F2081B9
:1026300030E04217530708F49A01A9010E94F426DA
:10264000CE010E94B31DD82E8823D1F001151105AB
:10265000B9F083E0CC0FDD1F8A95E1F7FE01E75C5E
:10266000FE4F438150E00417150708F4A801C75C2A
:10267000DE4F6C817D816F587D4FC7010E94F4262B
:102680008D2DDF91CF911F910F91FF90EF90DF90F3
:1026900008950C9462140C947E140F931F93CF939F
:1026A000DF9300D000D0CDB7DEB760918802709183
:1026B000890280918A0290918B020E949B1F11E0F7
:1026C000643671058105910518F10E948C106E5FCA
:1026D0007F4F8F4F9F4F69837A838B839C8310E05A
:1026E00000E030E020E044E050E0BE016F5F7F4F4B
:1026F00082E00E94FD12182F882351F00E94801F53
:10270000609388027093890280938A0290938B026F
:10271000812F0F900F900F900F90DF91CF911F910D
:102720000F910895AF92BF92CF92DF92EF92FF92F6
:102730000F931F93CF93DF9300D000D000D0CDB77D
:10274000DEB77B01C090D301D090D40101E010E04E
:102750009E012A5F3F4F50E040E070E060E080E083
:102760000E94FD12182F882309F448C056018FEFEC
:10277000A81AB80A6091840270918502809186023D
:10278000909187020E949B1F643671058105910517
:1027900068F105E010E09E012F5F3F4F50E040E000
:1027A00070E060E081E00E94FD12D82E65E070E0EC
:1027B000C5010E94511711E09E81981310E01D2160
:1027C00041F10E94801F6093840270938502809380
:1027D00086029093870285E0FE013196AFE7B2E072
:1027E00001900D928A95E1F711E013C065E070E069
:1027F000C5010E9451179E818913CBCF85E0F60158
:102800003196DE01119601900D928A95E1F7111132
:10281000E2CF85E0EFE7F2E0D70101900D928A95D3
:10282000E1F7812F26960FB6F894DEBF0FBECDBF1D
:10283000DF91CF911F910F91FF90EF90DF90CF909C
:10284000BF90AF900895AF92BF92CF92DF92EF9278
:10285000FF920F931F93CF93DF937C015B016A017B
:102860000E94BC1201E010E0882311F00AE010E0A1
:10287000C1E0D0E0F894B501C701F601099578945C
:10288000811104C021960C171D075CF4DF91CF91D4
:102890001F910F91FF90EF90DF90CF90BF90AF907E
:1028A0000895CC9F9001CD9F300D300D112490E004
:1028B00080E045E34A95F1F70000019682179307FF
:1028C000C1F7D8CF0F931F93CF93DF93EC018B0108
:1028D00042E953E10E942314882351F04DE453E16F
:1028E000B801CE01DF91CF911F910F910C94231469
:1028F00080E0DF91CF911F910F9108950F931F9367
:10290000CF93DF93F894C091D301D091D401CE013D
:10291000019625E0FB01DC0101900D922A95E1F77B
:1029200065E070E00E94511788837894F8946E8176
:102930007F818885998500917B0210917C0220918E
:102940007D0230917E02601771078207930751F074
:1029500060937B0270937C0280937D0290937E0251
:102960000E946F107894DF91CF911F910F9108957D
:102970000E947B210E94D80D0C9487210E948B21FC
:102980000E94740E0C94A5210E94141F0E946221C3
:102990000E94C20D0E94B8140E94BE140E94D00D65
:1029A000FBCF8091940280FF0DC06091550170E0D3
:1029B000660F771F6038710570F56115710569F153
:1029C000862F089581FF07C06091550184E0689FBC
:1029D000B0011124EFCF6091550182FD0AC08091B2
:1029E00093028823A9F02091540160915501821728
:1029F00010F088E0ECCF869FC001112433E0880FEF
:102A0000991F3A95E1F7622F70E00E94B926D2CF64
:102A100068E070E0D5CF8FE7089581E00895809158
:102A2000940280FF0CC06091520170E0759567952B
:102A3000759567956115710549F1862F089581FF98
:102A400006C06091520170E075956795F3CF609173
:102A5000520182FD0BC0909192029923A1F06091E6
:102A6000510180915201961738F0682F70E060385C
:102A7000710500F38FE70895899FC001112470E06C
:102A80000E94B926F4CF61E070E0D7CF81E00895CD
:102A90008D3E31F40E94D11481958093980208955F
:102AA0008E3E19F40E94D114F8CF8F3E31F40E946B
:102AB000D1148195809397020895803F19F40E9464
:102AC000D114F8CF893F29F40E940F158093990201
:102AD00008958A3F21F40E940F158195F7CF8B3F0F
:102AE00031F40E940F15819580939A0208958C3FCE
:102AF00019F40E940F15F8CF9FE0980F983070F4EA
:102B0000815F990B21E030E001C0220F8A95EAF73E
:102B100080919602822B8093960208958D3F31F426
:102B20008091940281608093940208958E3F21F4F5
:102B3000809194028260F7CF8F3FB9F78091940221
:102B40008460F1CF409197028D3E59F480919802B4
:102B500087FF0DC01092980241110BC01092930292
:102B600008C08E3E81F48091980218169CF344238D
:102B700081F08091990290919A02892B09F05AC0B4
:102B80001092920208958F3E49F447FFF0CF1092C1
:102B90009702809198028111ECCFE0CF803F19F429
:102BA0001416ACF3E4CF90919902893F29F41916D9
:102BB000F4F610929902DBCF8A3F19F497FFD7CF32
:102BC000F8CF90919A028B3F29F497FFD0CF1092C3
:102BD0009A02CDCF8C3F19F41916CCF3C8CF9FE0E1
:102BE000980F983090F4815F990B21E030E0B901A3
:102BF00002C0660F771F8A95E2F7CB01809590910E
:102C00009602892380939602B2CF8D3F31F4809152
:102C100094028E7F80939402AACF8E3F21F48091FC
:102C200094028D7FF7CF8F3F09F0A1CF809194025E
:102C30008B7FF0CF08950E94741F9C0190919702A2
:102C400080919802982B21F030939102209390026A
:102C50009091990280919A02982B21F030938F02E3
:102C600020938E0285E992E00C94511EEF92FF9220
:102C70000F931F93CF93DF9300D000D000D0CDB738
:102C8000DEB786E0E5E9F2E0DE01119601900D92F3
:102C90008A95E1F7E0909702F090980200919902EE
:102CA00010919A0210929702109298021092990233
:102CB00010929A028E2D8F2991F08091900290911E
:102CC00091020E948C1FAC0190919302992309F408
:102CD0003FC0809156018417150608F447C0802F25
:102CE000812B91F080918E0290918F020E948C1F17
:102CF000AC0190919202992309F477C0809153011D
:102D00008417150608F47FC080919702909198026D
:102D1000892B90919902892B90919A02892B11F01D
:102D20000E941B1686E0FE013196A5E9B2E00190F3
:102D30000D928A95E1F726960FB6F894DEBF0FBE86
:102D4000CDBFDF91CF911F910F91FF90EF9008952C
:102D500020918D028AE0289F9001112424173507C5
:102D600008F0BDCF9F5F9093930202C09F3FD1F7C1
:102D7000EE2059F00E94D1149FEF1E140CF491E044
:102D8000899F802D112480939702FF2059F00E9483
:102D9000D1149FEF1F140CF491E0899F802D112412
:102DA0008093980230919702332309F498CF2091B1
:102DB0009802222309F493CF45EB3403C001112478
:102DC000992359F09093970245EB24039001112425
:102DD000332339F03093980282CF81E080939702B9
:102DE000F3CF81E0809398027ACF20918C028AE021
:102DF000289F900111242417350708F085CF9F5F85
:102E00009093920202C09F3FD1F7002359F00E9495
:102E10000F159FEF10160CF491E0899F802D11245F
:102E200080939902112359F00E940F159FEF1116FC
:102E30000CF491E0899F802D112480939A023091A7
:102E40009902332309F460CF20919A02222309F4D6
:102E50005BCF45EB3403C0011124992359F09093C3
:102E6000990245EB240390011124332339F0309368
:102E70009A024ACF81E080939902F3CF81E0809358
:102E80009A0242CF86E0E5E9F2E0DF011D928A95E1
:102E9000E9F7109293021092920210929402089510
:102EA0000895FC01680F791F8FEF91E36E177F077C
:102EB00009F408952191822728E030E087FF06C0B9
:102EC000880F892721503109C9F7F0CF880FFACF31
:102ED000CF93DF93EC01FB018281882309F433C196
:102EE000C430FDE5DF07C0F5CB3F9CE5D90730F4E2
:102EF0009E0122503C4524313105B0F50E94080D59
:102F00009093C0028093BF02C1318CE5D80709F4C9
:102F1000EEC008F069C0C930ECE5DE0709F4D5C0A1
:102F2000C8F5C5308CE5D80709F4C7C000F5C33033
:102F3000ECE5DE0709F4B9C008F0BBC0C230DC45DF
:102F400009F4ADC08091BF029091C0020E94160D9D
:102F50000E94CA0680E008C0C236EDE5DE0771F2C5
:102F6000C63AFDE5DF0751F2DF91CF9108958091D8
:102F7000BF028062C7309CE5D90709F493C08091F5
:102F8000BF028061C830DC4508F48CC08091BF026C
:102F9000806488C08091BF028B7FCD30FCE5DF0765
:102FA00009F480C098F48091BF028E7FCB309CE5FD
:102FB000D90709F477C08091BF028C60CC30DC4522
:102FC00008F470C08091BF028D7F6CC08091BF02F9
:102FD0008F7ECF30FCE5DF0709F464C008F47BC0C6
:102FE0008091BF028F7D5EC0CE3F9CE5D90709F47A
:102FF0007AC050F5C531FCE5DF0709F486C098F4C6
:103000008091BF02837FC3319CE5D90709F44AC090
:1030100008F471C00E94CA069091BF02892F97FBE5
:1030200087F980583FC0CC3FFCE5DF0709F449C071
:1030300008F055C08091C0028160CB3FDC4509F0AB
:1030400081CF8093C0027ECFC230EDE5DE0709F468
:1030500068C0A8F4C1158DE5D80709F452C0809165
:10306000C0028360C130DD4560F38091C002982FBB
:10307000909591708E7F892B90FB81F9E2CFC236BB
:10308000EDE5DE0709F451C0C63AFDE5DF0709F4B6
:1030900053C0C330DD4509F055CF80E043C0809177
:1030A000BF0281608093BF024DCF8091BF028260DA
:1030B000F9CF8091BF028460F5CF8091BF02886014
:1030C000F1CF8091C0028260BCCF0E94CA0680917D
:1030D000BF028068E7CF8091BF02877FE3CF8091F6
:1030E000C0028E7FAECF8091C0028D7FAACF80912B
:1030F000BF028F7BD7CF0E94CA068091BF028F7715
:10310000D1CF8091C0028C7F9CCF8091BF0282FB87
:10311000992790F921E0922790FB82F990FB83F99F
:10312000C1CF81E00E949C0D0DCF9091BF02892FED
:103130008F7E94FF8061B6CF9091BF02892F8E7FE2
:1031400090FF8160AFCF81E00FCF0F931F9341E0DD
:1031500050E060E070E08A019B0104C0000F111F85
:10316000221F331F8A95D2F7C901B8010E941F0799
:103170001F910F910C94CA068B3109F461C040F580
:103180008B3071F078F4863009F443C020F4853038
:1031900059F180E00895873009F444C08830C9F7B8
:1031A00081E00895803109F459C068F48E3089F7C0
:1031B00090916802892F8B7F92FF846080936802D0
:1031C00082FD48C0EDCF863159F3893149F3E1CF13
:1031D0008A32E1F060F48732A9F020F48E31C8F22F
:1031E0008D5111C08932A9F60E944D02D9CF833486
:1031F00038F48A33F0F5853329F0883389F2C9CF62
:10320000833439F680E00E94A518CACF0E949A0D37
:10321000C7CF80916802807F8093680281E08093AD
:103220009E02089590916802892F8E7F90FF8160A1
:103230008093680280FDB4CF817F80936802B0CF15
:1032400090916802892F8D7F91FF82608093680240
:1032500081FFA6CF809168028160EFCF90916802D4
:10326000892F877F93FF88608093680283FDF2CF68
:1032700097CF8953C8CF80E008950C943B19CF9322
:10328000C82F80919E028130B9F0882331F08230BE
:10329000A1F110929E0280E00DC00E94110C8232BA
:1032A000D1F78C2F0E943B1981111BC08C2F0E94DB
:1032B000BC188170CF9108950E94110C823289F35D
:1032C0008C2F0E943D1981110AC0C43199F060F41D
:1032D000CB3029F0C03169F782E080939E0281E013
:1032E000E8CF81E090E0E5CFC93221F0C833B9F3EF
:1032F00080E0DFCF10929E02FBCFC93209F43FC0BD
:10330000E8F4C431E1F128F4C73009F45BC081E08E
:10331000D1CF82EE8C0F8A30D0F7CD51C0939D0271
:10332000C33009F446C0B0F5C13009F43FC086E5AA
:1033300091E0C230B1F110929D02E9CFC03509F49D
:1033400052C0B8F48AE0CF3411F7E0919B02F091BB
:103350009C023097E1F22081082E000C990B820F1D
:10336000911D8F3F910509F00CF441C08FEF8083D0
:10337000CECFC135D1F181E0C23539F39BCF8091F9
:103380009D02882321F210929D0210929C021092BD
:103390009B02BDCFC53099F078F081E591E0C63051
:1033A00051F690939C0280939B02B1CF8DE892E0FE
:1033B000F8CF85E591E0F5CF84E591E0F2CF82E5A5
:1033C00091E0EFCF10928D0284E180935601C0937B
:1033D00055018CE38093540188E08093520188E288
:1033E0008093510194CF86EFB0CF8FEFAECF97FF90
:1033F000BECF10828CCFCF93DF93EB0186319C45FB
:1034000011F50E94110C9A81992399F08A7A91E022
:1034100009F490E090939F02811109C089E20E9413
:10342000EC0B0E94540C80E0DF91CF91089585E36E
:10343000F6CF80919F02811104C089E20E94F30BB4
:10344000F0CF85E3FBCF81E0EFCF0F931F93CF93B6
:10345000DF93C42FD22FFC0182818823C9F04093CF
:10346000A2020E94741F9093A1028093A00280E2A6
:103470008C0F883008F050C0C77081E001C0880F01
:10348000CA95EAF7DF91CF911F910F910C94310407
:103490001091A202141335C08091A0029091A10254
:1034A0000E948C1F843B910560F5C0E2CD0F1D1773
:1034B000B9F080E2810F883040F4177081E001C0DC
:1034C000880F1A95EAF70E943804C83048F481E062
:1034D0009D2F977001C0880F9A95EAF70E943104DA
:1034E000802F0E942904C830B8F4D77081E001C051
:1034F000880FDA95EAF7DF91CF911F910F910C9425
:10350000380480E28C0F883038F4C77081E001C045
:10351000880FCA95EAF7EFCFDF91CF911F910F91F6
:1035200008950F939C01CB01243F4CE5340759F1DA
:10353000A8F4293DFCE53F0701F12A3D4CE534079D
:10354000D1F1283D3C4591F406E221EE41EE68EDD3
:103550007CE50E94251A80E00F910895263FFCE546
:103560003F07E9F0B0F0273F3C45F9F0FC018281CC
:10357000882339F11092A202EFCF07E225EE45EE43
:1035800069ED7CE5E6CF06E221EE40EE64EF7CE5F6
:10359000E0CF07E225EE44EE65EF7CE5DACF06E208
:1035A00021EE42EE66EF7CE5D4CF07E225EE46EE53
:1035B00067EF7CE5CECF08E221E045EE6AED7CE5E1
:1035C000C8CF81E0C9CFCF93DF93EC0181E0898B35
:1035D0008F810E94140C88850E94270C0E94540C35
:1035E000EA81FB81309739F06C897D89CE0106969E
:1035F000DF91CF910994DF91CF910895CF93DF931D
:10360000EC018881823039F4FB01828193810E9430
:10361000CC0181E08B87DF91CF910895FC018081FF
:10362000813029F4FB01808191810C94CC0182309E
:1036300021F4FB0182819381F8CF0895FC01808100
:10364000813029F4FB01808191810C94E101823069
:1036500021F4FB0182819381F8CF0895EF92FF92CC
:103660000F931F93CF93DF93EC018A85811134C0B0
:10367000EB80FC8087E5F81A26E12E9DC0012F9D86
:10368000900D1124DC01A050BF4F1496ED91FC91D8
:103690001597309731F054966D917C918A5F9E4FCB
:1036A000099586E18E9D80018F9D100D112400509B
:1036B0001F4FF80187810E941A0CF80180850E9433
:1036C0002D0C0E94540C188219861B861E821D82A6
:1036D0001092A4021092A302DF91CF911F910F913B
:1036E000FF90EF900895DF92EF92FF920F931F9358
:1036F000CF93DF937C01FB018281882399F0809135
:10370000570190915801019669F0C0E0D1E010E0B6
:1037100000E0DD24D39480915701909158018017E7
:10372000910744F4DF91CF911F910F91FF90EF909B
:10373000DF9008958E818823D9F089859A858E152A
:103740009F0539F48091A3029091A4028E159F05E4
:1037500079F0DF86FC86EB868989811103C0CE0172
:103760000E94E31ACE0106960E942E1B0E94340C82
:103770000F5F1F4F6696CFCFEF92FF920F931F936D
:10378000CF93DF937C0197558F3F910509F0E0F5CA
:1037900020915701309158012817390724F490934C
:1037A000580180935701FB01228136E1389F800147
:1037B000399F100D1124E801C050DF4F288B9281F2
:1037C0008E81992349F1FA86E9868F5F8E830E9464
:1037D000741F9E878D870E94370C8F830E94110C67
:1037E00088870E94240C9885892B8887E881F98135
:1037F000309731F06C897D89C8018A5F9E4F0995A9
:10380000F092A402E092A30281E0DF91CF911F9198
:103810000F91FF90EF9008958823B1F38989882351
:1038200099F3C8018A5F9E4F0E942E1BEDCFEF9245
:10383000FF920F931F93CF93DF9380915701909145
:10384000580110E006E10196C1F5DF91CF911F917B
:103850000F91FF90EF900895089FF001099FF00DE0
:103860001124E050FF4FE288F388E114F10419F4C9
:1038700024EBE22EF12C089FE001099FD00D1124CA
:10388000C050DF4F8E818823B9F08D859E850E94C0
:103890008C1FE816F90680F4109F700111248989A5
:1038A000811105C0C70180509F4F0E94E31AC701D4
:1038B0008A5F9E4F0E942E1B1F5F812F90E02091F8
:1038C0005701309158012817390734F6BECF8EE1E1
:1038D000489B02C08150E1F7489BFECF089558985D
:1038E00080E28A95F1F7589A0895FC013BE03A95F9
:1038F000F1F798E020E080E031E040E14A95F1F70F
:10390000880F489B02C08160232742E04A95F1F767
:10391000000040E14A95F1F7915079F790E19A95CE
:10392000F1F799B132E03A95F1F7000040E14A959C
:10393000F1F7917092272081920F90830895EF9272
:10394000FF920F931F93CF93DF930F92CDB7DEB704
:1039500019828C017C01E60EF11C0E151F0561F425
:1039600081E09981911180E00F90DF91CF911F91BB
:103970000F91FF90EF9008950E94671CCE01019671
:103980000E94751CF80181938F01E7CF509A589AD5
:1039900008955098589AE89AE9E6F0E080818C7F83
:1039A000808308956150770B91E001C0990F6A956B
:1039B000EAF720E031E0911108C0222391F0589AF3
:1039C00080E28A95F1F758980895492F482339F0F5
:1039D000589A232740E24A95F1F79695ECCF5898EC
:1039E000F9CF5898EDCFFF920F931F93CF93DF93AA
:1039F000EC018C01060F111DC017D10731F4DF91C6
:103A0000CF911F910F91FF900895F9900E946F1C24
:103A100068E08F2D0E94D21CEFCF1F920F920FB63D
:103A20000F9211240F931F932F933F934F935F9304
:103A30006F937F938F939F93AF93BF93EF93FF9376
:103A4000CF93DF930F92CDB7DEB719820E94671C28
:103A5000CE0101960E94751C082F069506950695C5
:103A6000282F22952570902F9570290F922F9370F3
:103A700026952695920F982797708981982B09F0A3
:103A80005CC0043008F059C080E18A95F1F7589A7B
:103A9000509A82E08A95F1F700C0589888E0089F14
:103AA00080011124D801A75CBE4F1696ED91FC91C0
:103AB00017973097A9F06091D3017091D4011496B3
:103AC0002D913C911597260F371F11968D919C9142
:103AD0001297680F791F13964C9113978C91099543
:103AE000F801E75CFE4F6381662351F02091D3011A
:103AF0003091D40184819581820F931F0E94F31C21
:103B00000E946F1C80E18A95F1F758985098589A56
:103B100080E18A95F1F7F801E75CFE4F608166234A
:103B200051F02091D3013091D40181819281820F93
:103B3000931F0E949F1C0E94671C0F90DF91CF91E2
:103B4000FF91EF91BF91AF919F918F917F916F9175
:103B50005F914F913F912F911F910F910F900FBE49
:103B60000F901F9018950F931F93CF93DF93EC0145
:103B700004970CF04CC0F894509A589885E08A95B8
:103B8000F1F700009C2F969595708C2F8570980FFB
:103B9000892F83709695969523E0CC0FDD1F2A958B
:103BA000E1F7980F8E01092B0E946F1C00C068E09E
:103BB000802F0E94D21C80E18A95F1F75098589A84
:103BC000489B1EC087E090E048991CC0FE01E75C5E
:103BD000FE4F63816623F9F02091D3013091D40127
:103BE00084819581820F931F0E949F1C811113C0B5
:103BF000509A589A7894DF91CF911F910F91089520
:103C000000C0DECF019729F4509A589A789480E04A
:103C1000F2CF00C0D9CF0E94671C80E28A95F1F7ED
:103C20005898509A80E18A95F1F7C75CDE4F688119
:103C3000662351F02091D3013091D40189819A817A
:103C4000820F931F0E94F31C0E946F1C789481E0E6
:103C5000D2CF9093D7018093D60108959093AB0271
:103C60008093AA0208950E949112811103C080914D
:103C7000A5020895E091AA02F091AB02309721F0DD
:103C80000190F081E02D099480E00895E091AA026E
:103C9000F091AB02309721F00280F381E02D09947E
:103CA0000895E091AA02F091AB02309739F022E03A
:103CB000DC012C930480F581E02D09940895209176
:103CC000A8023091A9022817390771F09093A90230
:103CD0008093A802E091AA02F091AB02309721F004
:103CE0000680F781E02D099408952091A602309175
:103CF000A7022817390771F09093A7028093A602B4
:103D0000E091AA02F091AB02309721F00084F18596
:103D1000E02D099408959C012E5F3F4FAC01485F50
:103D20005F4F80E02417350709F40895F901919158
:103D30009F019923B9F38F5FF5CF662349F0FC010A
:103D4000329608962191261729F0E817F907D1F73E
:103D500080E0089581E008959C01FC0132969FEF78
:103D600080E04191461751F09F3F19F4411101C085
:103D7000982F8F5F8630A9F79F3F09F40895290F88
:103D8000311D97FD3A95F90162830895FC01329641
:103D900008962191261303C0DF0111971C92E817A2
:103DA000F907B9F708950C94AC1E0C94C61E029640
:103DB00026E0FC0111922A95E9F7089508950C94E4
:103DC000DE1E811105C081E08093AC020C94DF1EE1
:103DD00082E0FACF83E08093AC020C94DF1E0C9457
:103DE000E11E81E08093AC020C94DF1E0C94F11E66
:103DF000089508950C94F91E089508950C94F81EE2
:103E0000CF930E94FC1E0E9407120E94FD1EC0E07C
:103E10008C2F0E94D410811105C0CF5FCA30C1F72A
:103E2000CF91089581E0FCCF08951F921FB61F9295
:103E300011248F939F93AF93BF938091AD02811113
:103E400013C08091D7029091D802A091D902B0916D
:103E5000DA024196A11DB11D8093D7029093D8023A
:103E6000A093D902B093DA02BF91AF919F918F9145
:103E70001F901FBE1F9018958091DF02843031F192
:103E80000E94B8021092AD0288E190E020E40FB6E3
:103E9000F894A895809360000FBE2093600083B7CC
:103EA000817F846083BF83B7816083BF7894889566
:103EB00083B78E7F83BF0FB6F894A895809160007A
:103EC000886180936000109260000FBE08950E9488
:103ED000CA060C94BC0282E084BD93E095BD9AEFC3
:103EE00097BD80936E0008952FB7F8948091D70204
:103EF0009091D802A091D902B091DA022FBF089513
:103F00002FB7F8946091D7027091D8028091D902AE
:103F10009091DA022FBF08959C014FB7F8948091D9
:103F2000D7029091D802A091D902B091DA024FBF86
:103F3000821B930B0895CF92DF92EF92FF922FB7DF
:103F4000F894C090D702D090D802E090D902F090B7
:103F5000DA022FBFA7019601261B370B480B590B1E
:103F6000CA01B901FF90EF90DF90CF900895789447
:103F70001F921FB61F9211248F939F93AF93BF93ED
:103F80008091D7029091D802A091D902B091DA0223
:103F90000196A11DB11D8093D7029093D802A093E2
:103FA000D902B093DA02BF91AF919F918F911F9088
:103FB0001FBE1F90189587E797E79093010880939D
:103FC000000888E19AE00FB6F894A8958093600005
:103FD0000FBE90936000FFCF8091B90208950895BD
:103FE0009C0182E08093E9009FEF8091E80091506E
:103FF00085FD06C085ED8A95F1F700009111F5CF9A
:104000008091E80085FF0CC050E040E066E070E081
:10401000C9010E9416228091E8008E778093E80003
:104020000895CF93DF93EC0181E08093E9008FEF57
:104030009091E800815095FD06C095ED9A95F1F7B5
:1040400000008111F5CF8091E80085FF14C050E099
:1040500040E068E070E0CE010E9416228091E80006
:104060008E778093E80088E0FE01A1EBB2E001903A
:104070000D928A95E1F7DF91CF9108958093AE027A
:104080007093B0026093AF028091DF02843001F53B
:1040900082E08093E9008FEF9091E800815095FDD8
:1040A00006C095ED9A95F1F700008111F5CF80914A
:1040B000E80085FF0DC050E040E063E070E08EEA6C
:1040C00092E00E9416228091E8008E778093E800AB
:1040D0000895BC0184E00C943E20BC0183E00C9464
:1040E0003E208091DE02811109C00E94A6230E9419
:1040F00003248091E20084608093E200089510928E
:10410000DE0208950C94F11E6091DB0281E06111E2
:1041100001C080E00C94EA1E9091DF0281E09430AF
:1041200009F080E06091DB020C94EF1E42E061EC4C
:1041300081E00E94222342E261EC82E00E9422237D
:104140009091DF0281E0943009F080E06091DB0221
:104150000C94E11E8091E102833009F460C030F4D8
:104160008130C9F1823009F49CC008958A3009F485
:1041700088C08B3009F46EC0893009F04FC080913F
:10418000E002813209F04AC08091E4029091E50298
:10419000029708F043C08091E800877F8093E80091
:1041A0008091E80082FF36C09091F3008091F20088
:1041B000029731F48091F100813011F0863021F4C2
:1041C0008091F1008093B9028091E8008B77809311
:1041D000E8000C9456238091E002813AF9F4809132
:1041E000E800877F8093E8008091E4029091E502E7
:1041F000892B61F468E081EB92E070E00E94652217
:104200008091E8008B778093E800089560E090E06B
:1042100080E0F3CF8091DF028111C2CF08958091B9
:10422000E002813AD9F78091E4029091E502892B6E
:10423000A9F78091E800877F8093E8008091E800EB
:1042400080FFFCCF809165018093F1008091E800B0
:104250008E77BDCF8091E002813201F78091E40238
:104260009091E502892BD1F68091E800877F8093B9
:10427000E8000E9456238091E202809365010C942D
:10428000CA068091E002813249F68091E800877F7A
:104290008093E8000E9456238091E3028093BA0243
:1042A00008958091E002813A09F0B8CF8091E8004A
:1042B000877F8093E8008091E80080FFFCCF8091A9
:1042C000BA02C2CF84B7877F84BF0FB6F894A8958F
:1042D00080916000886180936000109260000FBE42
:1042E00080E890E00FB6F8948093610090936100AD
:1042F0000FBE0C94F61E0E94A6230E940324E2EE39
:10430000F0E080818460808378940C948C2689E529
:1043100091E00C942E1E8091DF028530A9F48091EB
:10432000DF02853011F00C94671F0E943C1F8091C2
:10433000DD028823A1F30E94001F882381F30E94DD
:1043400000220E94CA06EBCF089508950C94A8217C
:10435000292F33272330310519F168F42130310535
:1043600009F444C02230310509F445C090E080E0F2
:1043700030E020E025C02132310549F122323105FB
:10438000A9F780E490E026EA32E061157105C1F0FA
:104390008BE790E02BE232E06130710589F0E6CFE7
:1043A00099278130910581F0009729F00297F1F665
:1043B000ECE9F1E002C0EAEDF1E0849190E09F01C8
:1043C000FA01318320830895EAECF1E0F6CF89E029
:1043D00090E020EF31E06115710591F389E090E004
:1043E00029E032E06130710559F3C0CF82E190E0FD
:1043F00029E132E0E5CF8BE390E02EED31E0E0CF34
:1044000080E189BD82E189BD09B400FEFDCF8091C4
:10441000D8008F7D8093D8008091E00082608093E7
:10442000E0008091E00081FDFCCF0895AF92BF9243
:10443000CF92DF92FF920F931F93CF93DF936C0184
:10444000EB018A010E947523F82E811123C001150A
:10445000110539F0F80180819181C81BD90BC80E74
:10446000D91EB12CA12C2097A9F08091E80085FDE0
:1044700022C08091E8008E778093E8000115110535
:10448000A1F0F80180819181A80EB91EB182A082AD
:1044900085E0F82E8F2DDF91CF911F910F91FF9026
:1044A000DF90CF90BF90AF9008950E94752388232E
:1044B000D1F2F82EEFCFF60181916F018093F100D8
:1044C0002197FFEFAF1ABF0ACECFFC018091E60221
:1044D0009091E70286179707A0F06115710529F4FE
:1044E0009091E8009E779093E80090E06115710547
:1044F00051F4911108C08091E80082FF34C080E03F
:104500000895BC01F2CF8091DF028823C1F185308C
:10451000C1F18091E80083FD30C08091E80082FD08
:10452000EACF8091E80080FFE1CF8091F3002091F5
:10453000F200382F6115710519F02830310558F057
:1045400091E02830310509F090E02091E8002E77C5
:104550002093E800CBCF81918093F10061507109E5
:104560002F5F3F4FE7CF8091DF02882341F08530F6
:1045700041F08091E80083FFBECF81E0089582E0A2
:10458000089583E00895FC018091E6029091E7028E
:1045900086179707A0F06115710529F48091E8004E
:1045A0008E778093E80090E06115710551F49111C8
:1045B00008C08091E80082FF35C080E00895BC010A
:1045C000F2CF8091DF028823C9F18530C9F1809153
:1045D000E80083FD31C08091E80082FDEACF809140
:1045E000E80080FFE1CF8091F3002091F200382FA6
:1045F0006115710519F02830310558F091E0283027
:10460000310509F090E08091E8008E778093E80012
:10461000CBCF84918093F1003196615071092F5F67
:104620003F4FE6CF8091DF02882341F0853041F093
:104630008091E80083FFBDCF81E0089582E0089576
:1046400083E00895982F973028F08F708093E900C9
:1046500081E008959093E900242F762F50E0981779
:1046600031F07091EC002091ED005091F00021FDAF
:1046700002C09F5FE8CF3091EB003E7F3093EB00AC
:104680003091ED003D7F3093ED003091EB003160D3
:104690003093EB007093EC002093ED005093F0000A
:1046A0002091EE0027FDE5CF80E008958091E002A3
:1046B00087FF13C08091E80082FF06C08091E80068
:1046C0008B778093E80004C08091DF028111F2CFE4
:1046D00008958091DF028823D9F38091E80080FF5C
:1046E000F8CF8091E8008E77ECCF2091E4003091F4
:1046F000E50095E6A9012091EC00822F817020FF52
:1047000006C08091E80080FF06C080E008952091F7
:10471000E80022FD1AC08091DF02882389F08530ED
:1047200089F08091EB0085FD0FC02091E40030916D
:10473000E50042175307F9F29150E1F684E008953D
:1047400082E0089583E0089581E008950E94142492
:104750000E941C24E0EEF0E0808181608083E8ED1F
:10476000F0E080818F77808319BCA7EDB0E08C9159
:104770008E7F8C9380818F7E80831092DE020895DD
:104780000F931F93CF93DF930E9414240E941C2445
:10479000C8EDD0E088818F7788838881806888839E
:1047A00088818F7D888319BC1092DF021092DB0212
:1047B0001092DD021092DC0200EE10E0F801808120
:1047C0008B7F808388818160888342E060E080E025
:1047D0000E942223E1EEF0E080818E7F8083E2EE72
:1047E000F0E0808181608083808188608083F8012F
:1047F00080818E7F8083888180618883DF91CF91E3
:104800001F910F910895E8EDF0E080818F7E808305
:10481000E7EDF0E080818160808384E082BF81E009
:104820008093DE020C94C023E8EDF0E080818E7F5F
:1048300080831092E20008951092DA001092E10055
:1048400008951F920F920FB60F9211242F933F934A
:104850004F935F936F937F938F939F93AF93BF9388
:10486000EF93FF938091E10082FF0BC08091E20003
:1048700082FF07C08091E1008B7F8093E1000E945E
:104880008B268091DA0080FF19C08091D80080FFCC
:1048900015C08091DA008E7F8093DA008091D90074
:1048A00080FF96C080E189BD82E189BD09B400FE28
:1048B000FDCF81E08093DF020E9471208091E100B2
:1048C00080FF19C08091E20080FF15C08091E20056
:1048D0008E7F8093E2008091E20080618093E2000D
:1048E0008091D80080628093D80019BC85E08093C5
:1048F000DF020E9484208091E10084FF2BC0809120
:10490000E20084FF27C080E189BD82E189BD89B5CD
:10491000982F917080FFFBCF8091D8008F7D80937E
:10492000D8008091E1008F7E8093E1008091E200C9
:104930008F7E8093E2008091E20081608093E200AC
:104940008091DB02882309F449C084E08093DF0270
:104950000E948C208091E10083FF29C08091E200B9
:1049600083FF25C08091E100877F8093E10082E092
:104970008093DF021092DB028091E1008E7F8093B2
:10498000E1008091E2008E7F8093E2008091E2005E
:1049900080618093E20042E060E080E00E94222398
:1049A0008091F00088608093F0000E948220FF9147
:1049B000EF91BF91AF919F918F917F916F915F9197
:1049C0004F913F912F910F900FBE0F901F90189510
:1049D00019BC1092DF020E947F2070CF8091E3000B
:1049E00087FD93E09093DF02B3CF1F920F920FB633
:1049F0000F9211242F933F934F935F936F937F9365
:104A00008F939F93AF93BF93CF93DF93EF93FF93D6
:104A1000D091E900DF708091EC00C82FC17080FD5B
:104A2000C0E81092E9008091F000877F8093F00049
:104A300078940E9439251092E9008091F0008860F6
:104A40008093F000CD2BCF70C093E900FF91EF91E0
:104A5000DF91CF91BF91AF919F918F917F916F9196
:104A60005F914F913F912F910F900FBE0F901F902C
:104A700018951F93CF93DF93CDB7DEB7AA970FB6E4
:104A8000F894DEBF0FBECDBF80EE92E02091F10022
:104A9000FC012193CF01F2E0883E9F07B9F70E9405
:104AA000AA208091E80083FF1EC18091E0029091CE
:104AB000E1029A3008F017C1E92FF0E0E35BF84D0E
:104AC0000C94CD26803899F0823809F00CC1809181
:104AD000E4028F70873008F006C18093E90080916E
:104AE000EB0085FB882780F91092E90006C08091D1
:104AF000DC029091DD02911182609091E800977F35
:104B00009093E8008093F1001092F1008091E8000A
:104B10008E77E5C0882309F4D3C0823009F0E3C062
:104B20008091E2028111D6C08091E4028F702FEF54
:104B3000280F263008F0D7C08093E9002091EB00C1
:104B400020FFC8C0933031F48091EB0080628093E5
:104B5000EB00C0C09091EB0090619093EB0021E0DE
:104B600030E001C0220F8A95EAF72093EA00109204
:104B7000EA008091EB008860EACF8111B4C0109107
:104B8000E2021F778091E3008078812B8093E3001D
:104B90008091E800877F8093E8000E9456238091EF
:104BA000E80080FFFCCF8091E30080688093E30001
:104BB00082E0111183E08093DF0295C0805882303B
:104BC00008F091C08091E2029091E3028C3D23E0D5
:104BD0009207A1F583E08A838AE289834FB7F8942C
:104BE000DE01139620E03EE051E2E32FF0E0509327
:104BF0005700E49120FF03C0E295EF703F5FEF7034
:104C00008E2F90E0EA30C0F0C7968D939D932F5F72
:104C1000243159F74FBF8091E800877F8093E800E7
:104C20006AE270E0CE0101960E9465228091E80060
:104C30008B778093E80057C0C096E7CF6091E4027D
:104C40007091E502AE014F5F5F4F0E94A621BC014B
:104C5000892B09F448C09091E800977F9093E80071
:104C600089819A810E94C322E1CF8038E1F5809149
:104C7000E800877F8093E8008091DB028093F10059
:104C800045CF811130C09091E202923060F5809161
:104C9000E800877F8093E8009093DB020E94562310
:104CA0008091DB02882311F084E005C08091E3004D
:104CB00087FDFACF81E08093DF020E94962013C027
:104CC0008091E202813079F481E0933009F080E054
:104CD0008093DD021092E9008091E800877F809345
:104CE000E8000E9456238091E80083FF0AC080916B
:104CF000E800877F8093E8008091EB0080628093DA
:104D0000EB00AA960FB6F894DEBF0FBECDBFDF91C1
:104D1000CF911F9108950895CF938091DF0288234A
:104D2000A1F0C091E900CF709091EC00892F8170C3
:104D300090FD80E8C82B1092E9008091E80083FD87
:104D40000E943925CF70C093E900CF9108950E9449
:104D5000A6231092DF020895E8EDF0E080818061E3
:104D600080838AE18A95F1F700C08091D900817033
:104D7000089597FB072E16F4009407D077FD09D00D
:104D80000E94D32607FC05D03EF4909581959F4F55
:104D90000895709561957F4F0895EE0FFF1F059060
:104DA000F491E02D0994AA1BBB1B51E107C0AA1F77
:104DB000BB1FA617B70710F0A61BB70B881F991FBC
:104DC0005A95A9F780959095BC01CD010895FB01F6
:104DD000DC0104C08D910190801921F441505040B4
:104DE000C8F7881B990B0895FB01DC0102C00190F4
:104DF0000D9241505040D8F70895F999FECF92BDD9
:104E000081BDF89A992780B50895A8E1B0E042E005
:104E100050E00C943127262FF999FECF92BD81BD29
:104E2000F89A019700B4021639F01FBA20BD0FB6E8
:104E3000F894FA9AF99A0FBE08950396272F0E94C4
:104E40000C270E940B27252F0E940C27242F0C943F
:104E50000C270196272F0E940C270C940B27DC01AE
:104E6000CB01FC01F999FECF06C0F2BDE1BDF89A75
:104E7000319600B40D9241505040B8F70895F8941F
:104E8000FFCF7D047D04AE04AE0441055D05DD0465
:104E9000DD046805F4050306030662258A257326EA
:0E4EA0008A257326BD25DE257326352641267C
:104EAE00FE1A0E1B1E1B000000000000000000007A
:104EBE00000000003001FE1A0E1B1E1B0000000039
:104ECE00000000000000000000002C018B008A0092
:104EDE002B18160AB4004C0201000000010000005D
:104EEE0000000000050100000004060000000000A4
:104EFE00002808503C0714FFFFEC1F1120F01F6D17
:104F0E00206920EF1F01E200E900EA00B500B600BB
:104F1E00B700CD008301CC008A01920194012102D9
:104F2E00230224022502260227022A02B300B4001D
:104F3E006F007000818283E200E900EA00B500B6DE
:104F4E0000B700CD008301CC008A019201940121AB
:104F5E0002230224022502260227022A02B300B4EB
:104F6E00006F007000818283946697C63435F731E6
:064F7E003332367102001F
:00000001FF
